{
	"data": {
		"bytecode": {
			"linkReferences": {},
			"object": "61016060405260016007553480156200001757600080fd5b50604051620044303803806200443083398181016040528101906200003d91906200042b565b6040518060400160405280600681526020017f506f534e465400000000000000000000000000000000000000000000000000008152506040518060400160405280600381526020017f312e300000000000000000000000000000000000000000000000000000000000815250826040518060400160405280600681526020017f506f534e465400000000000000000000000000000000000000000000000000008152506040518060400160405280600481526020017f504e46540000000000000000000000000000000000000000000000000000000081525081600090805190602001906200012e9291906200033b565b508060019080519060200190620001479291906200033b565b50505060008380519060200120905060008380519060200120905060007fd87cd6ef79d4e2b95e15ce8abf732db51ec771f1ca2edccf22a46c729ac5647290508260e081815250508161010081815250508361014081815250504660a08181525050620001bd818484876200022e60201b60201c565b608081815250503073ffffffffffffffffffffffffffffffffffffffff1660c08173ffffffffffffffffffffffffffffffffffffffff1681525050806101208181525050505050505050620002276200021b6200026d60201b60201c565b6200027560201b60201c565b506200059f565b60008484844630866040516020016200024d96959493929190620004ce565b604051602081830303815290604052805190602001209050949350505050565b600033905090565b6000600660009054906101000a900473ffffffffffffffffffffffffffffffffffffffff16905081600660006101000a81548173ffffffffffffffffffffffffffffffffffffffff021916908373ffffffffffffffffffffffffffffffffffffffff1602179055508173ffffffffffffffffffffffffffffffffffffffff168173ffffffffffffffffffffffffffffffffffffffff167f8be0079c531659141344cd1fd0a4f28419497f9722a3daafe3b4186f6b6457e060405160405180910390a35050565b82805462000349906200056a565b90600052602060002090601f0160209004810192826200036d5760008555620003b9565b82601f106200038857805160ff1916838001178555620003b9565b82800160010185558215620003b9579182015b82811115620003b85782518255916020019190600101906200039b565b5b509050620003c89190620003cc565b5090565b5b80821115620003e7576000816000905550600101620003cd565b5090565b600080fd5b6000819050919050565b6200040581620003f0565b81146200041157600080fd5b50565b6000815190506200042581620003fa565b92915050565b600060208284031215620004445762000443620003eb565b5b6000620004548482850162000414565b91505092915050565b6200046881620003f0565b82525050565b6000819050919050565b62000483816200046e565b82525050565b600073ffffffffffffffffffffffffffffffffffffffff82169050919050565b6000620004b68262000489565b9050919050565b620004c881620004a9565b82525050565b600060c082019050620004e560008301896200045d565b620004f460208301886200045d565b6200050360408301876200045d565b62000512606083018662000478565b620005216080830185620004bd565b6200053060a08301846200045d565b979650505050505050565b7f4e487b7100000000000000000000000000000000000000000000000000000000600052602260045260246000fd5b600060028204905060018216806200058357607f821691505b6020821081036200059957620005986200053b565b5b50919050565b60805160a05160c05160e051610100516101205161014051613e36620005fa60003960006121710152600061210e015260006121500152600061212f01526000612064015260006120ba015260006120e30152613e366000f3fe608060405234801561001057600080fd5b50600436106101585760003560e01c80636352211e116100c3578063a22cb4651161007c578063a22cb465146103b1578063af3da2f4146103cd578063b88d4fde146103e9578063c87b56dd14610405578063e985e9c514610435578063f2fde38b1461046557610158565b80636352211e146102ef578063704802751461031f57806370a082311461033b578063715018a61461036b5780638da5cb5b1461037557806395d89b411461039357610158565b806323b872dd1161011557806323b872dd1461022f5780633e5235b31461024b57806342842e0e14610269578063429b62e51461028557806349025b99146102b557806356b7e61d146102d357610158565b806301ffc9a71461015d57806302046c421461018d57806306fdde03146101a9578063081812fc146101c7578063095ea7b3146101f75780631785f53c14610213575b600080fd5b61017760048036038101906101729190612652565b610481565b604051610184919061269a565b60405180910390f35b6101a760048036038101906101a29190612831565b610563565b005b6101b161070a565b6040516101be9190612928565b60405180910390f35b6101e160048036038101906101dc919061294a565b61079c565b6040516101ee91906129b8565b60405180910390f35b610211600480360381019061020c91906129ff565b610821565b005b61022d60048036038101906102289190612a3f565b610938565b005b61024960048036038101906102449190612a6c565b610a0f565b005b610253610a6f565b6040516102609190612ace565b60405180910390f35b610283600480360381019061027e9190612a6c565b610a75565b005b61029f600480360381019061029a9190612a3f565b610a95565b6040516102ac919061269a565b60405180910390f35b6102bd610ab5565b6040516102ca9190612ace565b60405180910390f35b6102ed60048036038101906102e89190612831565b610abc565b005b6103096004803603810190610304919061294a565b610c01565b60405161031691906129b8565b60405180910390f35b61033960048036038101906103349190612a3f565b610cb2565b005b61035560048036038101906103509190612a3f565b610d89565b6040516103629190612ace565b60405180910390f35b610373610e40565b005b61037d610ec8565b60405161038a91906129b8565b60405180910390f35b61039b610ef2565b6040516103a89190612928565b60405180910390f35b6103cb60048036038101906103c69190612b15565b610f84565b005b6103e760048036038101906103e291906129ff565b610f9a565b005b61040360048036038101906103fe9190612b55565b6110ca565b005b61041f600480360381019061041a919061294a565b61112c565b60405161042c9190612928565b60405180910390f35b61044f600480360381019061044a9190612bd8565b6111d3565b60405161045c919061269a565b60405180910390f35b61047f600480360381019061047a9190612a3f565b611267565b005b60007f80ac58cd000000000000000000000000000000000000000000000000000000007bffffffffffffffffffffffffffffffffffffffffffffffffffffffff1916827bffffffffffffffffffffffffffffffffffffffffffffffffffffffff1916148061054c57507f5b5e139f000000000000000000000000000000000000000000000000000000007bffffffffffffffffffffffffffffffffffffffffffffffffffffffff1916827bffffffffffffffffffffffffffffffffffffffffffffffffffffffff1916145b8061055c575061055b8261135e565b5b9050919050565b620f42408310156105a9576040517f08c379a00000000000000000000000000000000000000000000000000000000081526004016105a090612c64565b60405180910390fd5b600015156009600084815260200190815260200160002060009054906101000a900460ff161515148015610647575060011515600860006105fb6105f56105ee6113c8565b88886113d0565b8561142b565b73ffffffffffffffffffffffffffffffffffffffff1673ffffffffffffffffffffffffffffffffffffffff16815260200190815260200160002060009054906101000a900460ff161515145b610686576040517f08c379a000000000000000000000000000000000000000000000000000000000815260040161067d90612cd0565b60405180910390fd5b6106976106916113c8565b84611447565b60016009600084815260200190815260200160002060006101000a81548160ff0219169083151502179055507f8e52db99ce3ea11f5ce05e25a6d21952ef9c65a56f572b7b6039f3dc608808c86106ec6113c8565b84846040516106fd93929190612cf0565b60405180910390a1505050565b60606000805461071990612d56565b80601f016020809104026020016040519081016040528092919081815260200182805461074590612d56565b80156107925780601f1061076757610100808354040283529160200191610792565b820191906000526020600020905b81548152906001019060200180831161077557829003601f168201915b5050505050905090565b60006107a782611620565b6107e6576040517f08c379a00000000000000000000000000000000000000000000000000000000081526004016107dd90612df9565b60405180910390fd5b6004600083815260200190815260200160002060009054906101000a900473ffffffffffffffffffffffffffffffffffffffff169050919050565b600061082c82610c01565b90508073ffffffffffffffffffffffffffffffffffffffff168373ffffffffffffffffffffffffffffffffffffffff160361089c576040517f08c379a000000000000000000000000000000000000000000000000000000000815260040161089390612e8b565b60405180910390fd5b8073ffffffffffffffffffffffffffffffffffffffff166108bb6113c8565b73ffffffffffffffffffffffffffffffffffffffff1614806108ea57506108e9816108e46113c8565b6111d3565b5b610929576040517f08c379a000000000000000000000000000000000000000000000000000000000815260040161092090612f1d565b60405180910390fd5b610933838361168c565b505050565b6109406113c8565b73ffffffffffffffffffffffffffffffffffffffff1661095e610ec8565b73ffffffffffffffffffffffffffffffffffffffff16146109b4576040517f08c379a00000000000000000000000000000000000000000000000000000000081526004016109ab90612f89565b60405180910390fd5b6000600860008373ffffffffffffffffffffffffffffffffffffffff1673ffffffffffffffffffffffffffffffffffffffff16815260200190815260200160002060006101000a81548160ff02191690831515021790555050565b610a20610a1a6113c8565b82611745565b610a5f576040517f08c379a0000000000000000000000000000000000000000000000000000000008152600401610a569061301b565b60405180910390fd5b610a6a838383611823565b505050565b60075481565b610a90838383604051806020016040528060008152506110ca565b505050565b60086020528060005260406000206000915054906101000a900460ff1681565b620f424081565b600015156009600084815260200190815260200160002060009054906101000a900460ff161515148015610b5a57506001151560086000610b0e610b08610b016113c8565b88886113d0565b8561142b565b73ffffffffffffffffffffffffffffffffffffffff1673ffffffffffffffffffffffffffffffffffffffff16815260200190815260200160002060009054906101000a900460ff161515145b610b99576040517f08c379a0000000000000000000000000000000000000000000000000000000008152600401610b9090612cd0565b60405180910390fd5b60016009600084815260200190815260200160002060006101000a81548160ff0219169083151502179055507fd63e0c57431cd17975151933d13435c8dac5628a5da7d22d0962c6884c86b51c82604051610bf49190612ace565b60405180910390a1505050565b6000806002600084815260200190815260200160002060009054906101000a900473ffffffffffffffffffffffffffffffffffffffff169050600073ffffffffffffffffffffffffffffffffffffffff168173ffffffffffffffffffffffffffffffffffffffff1603610ca9576040517f08c379a0000000000000000000000000000000000000000000000000000000008152600401610ca0906130ad565b60405180910390fd5b80915050919050565b610cba6113c8565b73ffffffffffffffffffffffffffffffffffffffff16610cd8610ec8565b73ffffffffffffffffffffffffffffffffffffffff1614610d2e576040517f08c379a0000000000000000000000000000000000000000000000000000000008152600401610d2590612f89565b60405180910390fd5b6001600860008373ffffffffffffffffffffffffffffffffffffffff1673ffffffffffffffffffffffffffffffffffffffff16815260200190815260200160002060006101000a81548160ff02191690831515021790555050565b60008073ffffffffffffffffffffffffffffffffffffffff168273ffffffffffffffffffffffffffffffffffffffff1603610df9576040517f08c379a0000000000000000000000000000000000000000000000000000000008152600401610df09061313f565b60405180910390fd5b600360008373ffffffffffffffffffffffffffffffffffffffff1673ffffffffffffffffffffffffffffffffffffffff168152602001908152602001600020549050919050565b610e486113c8565b73ffffffffffffffffffffffffffffffffffffffff16610e66610ec8565b73ffffffffffffffffffffffffffffffffffffffff1614610ebc576040517f08c379a0000000000000000000000000000000000000000000000000000000008152600401610eb390612f89565b60405180910390fd5b610ec66000611a89565b565b6000600660009054906101000a900473ffffffffffffffffffffffffffffffffffffffff16905090565b606060018054610f0190612d56565b80601f0160208091040260200160405190810160405280929190818152602001828054610f2d90612d56565b8015610f7a5780601f10610f4f57610100808354040283529160200191610f7a565b820191906000526020600020905b815481529060010190602001808311610f5d57829003601f168201915b5050505050905090565b610f96610f8f6113c8565b8383611b4f565b5050565b6001151560086000610faa6113c8565b73ffffffffffffffffffffffffffffffffffffffff1673ffffffffffffffffffffffffffffffffffffffff16815260200190815260200160002060009054906101000a900460ff16151514611034576040517f08c379a000000000000000000000000000000000000000000000000000000000815260040161102b906131d1565b60405180910390fd5b620f4240816007546110469190613220565b1115611087576040517f08c379a000000000000000000000000000000000000000000000000000000000815260040161107e906132c2565b60405180910390fd5b60005b818110156110c5576110b283600760008154809291906110a9906132e2565b91905055611447565b80806110bd906132e2565b91505061108a565b505050565b6110db6110d56113c8565b83611745565b61111a576040517f08c379a00000000000000000000000000000000000000000000000000000000081526004016111119061301b565b60405180910390fd5b61112684848484611cbb565b50505050565b606061113782611620565b611176576040517f08c379a000000000000000000000000000000000000000000000000000000000815260040161116d9061339c565b60405180910390fd5b6000611180611d17565b905060008151116111a057604051806020016040528060008152506111cb565b806111aa84611d2e565b6040516020016111bb9291906133f8565b6040516020818303038152906040525b915050919050565b6000600560008473ffffffffffffffffffffffffffffffffffffffff1673ffffffffffffffffffffffffffffffffffffffff16815260200190815260200160002060008373ffffffffffffffffffffffffffffffffffffffff1673ffffffffffffffffffffffffffffffffffffffff16815260200190815260200160002060009054906101000a900460ff16905092915050565b61126f6113c8565b73ffffffffffffffffffffffffffffffffffffffff1661128d610ec8565b73ffffffffffffffffffffffffffffffffffffffff16146112e3576040517f08c379a00000000000000000000000000000000000000000000000000000000081526004016112da90612f89565b60405180910390fd5b600073ffffffffffffffffffffffffffffffffffffffff168173ffffffffffffffffffffffffffffffffffffffff1603611352576040517f08c379a00000000000000000000000000000000000000000000000000000000081526004016113499061348e565b60405180910390fd5b61135b81611a89565b50565b60007f01ffc9a7000000000000000000000000000000000000000000000000000000007bffffffffffffffffffffffffffffffffffffffffffffffffffffffff1916827bffffffffffffffffffffffffffffffffffffffffffffffffffffffff1916149050919050565b600033905090565b60007fb6b8501c5eb401a2c658dc6afbd8fc71e530ead458be2ac3f5f322d24727da9960001b84848460405160200161140c94939291906134c7565b6040516020818303038152906040528051906020012090509392505050565b600061143f61143984611e8e565b83611ea8565b905092915050565b600073ffffffffffffffffffffffffffffffffffffffff168273ffffffffffffffffffffffffffffffffffffffff16036114b6576040517f08c379a00000000000000000000000000000000000000000000000000000000081526004016114ad90613558565b60405180910390fd5b6114bf81611620565b156114ff576040517f08c379a00000000000000000000000000000000000000000000000000000000081526004016114f6906135c4565b60405180910390fd5b61150b60008383611ecf565b6001600360008473ffffffffffffffffffffffffffffffffffffffff1673ffffffffffffffffffffffffffffffffffffffff168152602001908152602001600020600082825461155b9190613220565b92505081905550816002600083815260200190815260200160002060006101000a81548173ffffffffffffffffffffffffffffffffffffffff021916908373ffffffffffffffffffffffffffffffffffffffff160217905550808273ffffffffffffffffffffffffffffffffffffffff16600073ffffffffffffffffffffffffffffffffffffffff167fddf252ad1be2c89b69c2b068fc378daa952ba7f163c4a11628f55a4df523b3ef60405160405180910390a461161c60008383611ed4565b5050565b60008073ffffffffffffffffffffffffffffffffffffffff166002600084815260200190815260200160002060009054906101000a900473ffffffffffffffffffffffffffffffffffffffff1673ffffffffffffffffffffffffffffffffffffffff1614159050919050565b816004600083815260200190815260200160002060006101000a81548173ffffffffffffffffffffffffffffffffffffffff021916908373ffffffffffffffffffffffffffffffffffffffff160217905550808273ffffffffffffffffffffffffffffffffffffffff166116ff83610c01565b73ffffffffffffffffffffffffffffffffffffffff167f8c5be1e5ebec7d5bd14f71427d1e84f3dd0314c0f7b2291e5b200ac8c7c3b92560405160405180910390a45050565b600061175082611620565b61178f576040517f08c379a000000000000000000000000000000000000000000000000000000000815260040161178690613656565b60405180910390fd5b600061179a83610c01565b90508073ffffffffffffffffffffffffffffffffffffffff168473ffffffffffffffffffffffffffffffffffffffff16148061180957508373ffffffffffffffffffffffffffffffffffffffff166117f18461079c565b73ffffffffffffffffffffffffffffffffffffffff16145b8061181a575061181981856111d3565b5b91505092915050565b8273ffffffffffffffffffffffffffffffffffffffff1661184382610c01565b73ffffffffffffffffffffffffffffffffffffffff1614611899576040517f08c379a0000000000000000000000000000000000000000000000000000000008152600401611890906136e8565b60405180910390fd5b600073ffffffffffffffffffffffffffffffffffffffff168273ffffffffffffffffffffffffffffffffffffffff1603611908576040517f08c379a00000000000000000000000000000000000000000000000000000000081526004016118ff9061377a565b60405180910390fd5b611913838383611ecf565b61191e60008261168c565b6001600360008573ffffffffffffffffffffffffffffffffffffffff1673ffffffffffffffffffffffffffffffffffffffff168152602001908152602001600020600082825461196e919061379a565b925050819055506001600360008473ffffffffffffffffffffffffffffffffffffffff1673ffffffffffffffffffffffffffffffffffffffff16815260200190815260200160002060008282546119c59190613220565b92505081905550816002600083815260200190815260200160002060006101000a81548173ffffffffffffffffffffffffffffffffffffffff021916908373ffffffffffffffffffffffffffffffffffffffff160217905550808273ffffffffffffffffffffffffffffffffffffffff168473ffffffffffffffffffffffffffffffffffffffff167fddf252ad1be2c89b69c2b068fc378daa952ba7f163c4a11628f55a4df523b3ef60405160405180910390a4611a84838383611ed4565b505050565b6000600660009054906101000a900473ffffffffffffffffffffffffffffffffffffffff16905081600660006101000a81548173ffffffffffffffffffffffffffffffffffffffff021916908373ffffffffffffffffffffffffffffffffffffffff1602179055508173ffffffffffffffffffffffffffffffffffffffff168173ffffffffffffffffffffffffffffffffffffffff167f8be0079c531659141344cd1fd0a4f28419497f9722a3daafe3b4186f6b6457e060405160405180910390a35050565b8173ffffffffffffffffffffffffffffffffffffffff168373ffffffffffffffffffffffffffffffffffffffff1603611bbd576040517f08c379a0000000000000000000000000000000000000000000000000000000008152600401611bb49061381a565b60405180910390fd5b80600560008573ffffffffffffffffffffffffffffffffffffffff1673ffffffffffffffffffffffffffffffffffffffff16815260200190815260200160002060008473ffffffffffffffffffffffffffffffffffffffff1673ffffffffffffffffffffffffffffffffffffffff16815260200190815260200160002060006101000a81548160ff0219169083151502179055508173ffffffffffffffffffffffffffffffffffffffff168373ffffffffffffffffffffffffffffffffffffffff167f17307eab39ab6107e8899845ad3d59bd9653f200f220920489ca2b5937696c3183604051611cae919061269a565b60405180910390a3505050565b611cc6848484611823565b611cd284848484611ed9565b611d11576040517f08c379a0000000000000000000000000000000000000000000000000000000008152600401611d08906138ac565b60405180910390fd5b50505050565b606060405180602001604052806000815250905090565b606060008203611d75576040518060400160405280600181526020017f30000000000000000000000000000000000000000000000000000000000000008152509050611e89565b600082905060005b60008214611da7578080611d90906132e2565b915050600a82611da091906138fb565b9150611d7d565b60008167ffffffffffffffff811115611dc357611dc2612706565b5b6040519080825280601f01601f191660200182016040528015611df55781602001600182028036833780820191505090505b5090505b60008514611e8257600182611e0e919061379a565b9150600a85611e1d919061392c565b6030611e299190613220565b60f81b818381518110611e3f57611e3e61395d565b5b60200101907effffffffffffffffffffffffffffffffffffffffffffffffffffffffffffff1916908160001a905350600a85611e7b91906138fb565b9450611df9565b8093505050505b919050565b6000611ea1611e9b612060565b8361219b565b9050919050565b6000806000611eb785856121ce565b91509150611ec48161224f565b819250505092915050565b505050565b505050565b6000611efa8473ffffffffffffffffffffffffffffffffffffffff1661241b565b15612053578373ffffffffffffffffffffffffffffffffffffffff1663150b7a02611f236113c8565b8786866040518563ffffffff1660e01b8152600401611f4594939291906139e1565b6020604051808303816000875af1925050508015611f8157506040513d601f19601f82011682018060405250810190611f7e9190613a42565b60015b612003573d8060008114611fb1576040519150601f19603f3d011682016040523d82523d6000602084013e611fb6565b606091505b506000815103611ffb576040517f08c379a0000000000000000000000000000000000000000000000000000000008152600401611ff2906138ac565b60405180910390fd5b805181602001fd5b63150b7a0260e01b7bffffffffffffffffffffffffffffffffffffffffffffffffffffffff1916817bffffffffffffffffffffffffffffffffffffffffffffffffffffffff191614915050612058565b600190505b949350505050565b60007f000000000000000000000000000000000000000000000000000000000000000073ffffffffffffffffffffffffffffffffffffffff163073ffffffffffffffffffffffffffffffffffffffff161480156120dc57507f000000000000000000000000000000000000000000000000000000000000000046145b15612109577f00000000000000000000000000000000000000000000000000000000000000009050612198565b6121957f00000000000000000000000000000000000000000000000000000000000000007f00000000000000000000000000000000000000000000000000000000000000007f00000000000000000000000000000000000000000000000000000000000000007f000000000000000000000000000000000000000000000000000000000000000061243e565b90505b90565b600082826040516020016121b0929190613adc565b60405160208183030381529060405280519060200120905092915050565b600080604183510361220f5760008060006020860151925060408601519150606086015160001a90506122038782858561247b565b94509450505050612248565b604083510361223f576000806020850151915060408501519050612234868383612587565b935093505050612248565b60006002915091505b9250929050565b6000600481111561226357612262613b13565b5b81600481111561227657612275613b13565b5b031561241857600160048111156122905761228f613b13565b5b8160048111156122a3576122a2613b13565b5b036122e3576040517f08c379a00000000000000000000000000000000000000000000000000000000081526004016122da90613b8e565b60405180910390fd5b600260048111156122f7576122f6613b13565b5b81600481111561230a57612309613b13565b5b0361234a576040517f08c379a000000000000000000000000000000000000000000000000000000000815260040161234190613bfa565b60405180910390fd5b6003600481111561235e5761235d613b13565b5b81600481111561237157612370613b13565b5b036123b1576040517f08c379a00000000000000000000000000000000000000000000000000000000081526004016123a890613c8c565b60405180910390fd5b6004808111156123c4576123c3613b13565b5b8160048111156123d7576123d6613b13565b5b03612417576040517f08c379a000000000000000000000000000000000000000000000000000000000815260040161240e90613d1e565b60405180910390fd5b5b50565b6000808273ffffffffffffffffffffffffffffffffffffffff163b119050919050565b600084848446308660405160200161245b96959493929190613d3e565b604051602081830303815290604052805190602001209050949350505050565b6000807f7fffffffffffffffffffffffffffffff5d576e7357a4501ddfe92f46681b20a08360001c11156124b657600060039150915061257e565b601b8560ff16141580156124ce5750601c8560ff1614155b156124e057600060049150915061257e565b6000600187878787604051600081526020016040526040516125059493929190613dbb565b6020604051602081039080840390855afa158015612527573d6000803e3d6000fd5b505050602060405103519050600073ffffffffffffffffffffffffffffffffffffffff168173ffffffffffffffffffffffffffffffffffffffff16036125755760006001925092505061257e565b80600092509250505b94509492505050565b60008060007f7fffffffffffffffffffffffffffffffffffffffffffffffffffffffffffffff60001b841690506000601b60ff8660001c901c6125ca9190613220565b90506125d88782888561247b565b935093505050935093915050565b6000604051905090565b600080fd5b600080fd5b60007fffffffff0000000000000000000000000000000000000000000000000000000082169050919050565b61262f816125fa565b811461263a57600080fd5b50565b60008135905061264c81612626565b92915050565b600060208284031215612668576126676125f0565b5b60006126768482850161263d565b91505092915050565b60008115159050919050565b6126948161267f565b82525050565b60006020820190506126af600083018461268b565b92915050565b6000819050919050565b6126c8816126b5565b81146126d357600080fd5b50565b6000813590506126e5816126bf565b92915050565b600080fd5b600080fd5b6000601f19601f8301169050919050565b7f4e487b7100000000000000000000000000000000000000000000000000000000600052604160045260246000fd5b61273e826126f5565b810181811067ffffffffffffffff8211171561275d5761275c612706565b5b80604052505050565b60006127706125e6565b905061277c8282612735565b919050565b600067ffffffffffffffff82111561279c5761279b612706565b5b6127a5826126f5565b9050602081019050919050565b82818337600083830152505050565b60006127d46127cf84612781565b612766565b9050828152602081018484840111156127f0576127ef6126f0565b5b6127fb8482856127b2565b509392505050565b600082601f830112612818576128176126eb565b5b81356128288482602086016127c1565b91505092915050565b60008060006060848603121561284a576128496125f0565b5b6000612858868287016126d6565b9350506020612869868287016126d6565b925050604084013567ffffffffffffffff81111561288a576128896125f5565b5b61289686828701612803565b9150509250925092565b600081519050919050565b600082825260208201905092915050565b60005b838110156128da5780820151818401526020810190506128bf565b838111156128e9576000848401525b50505050565b60006128fa826128a0565b61290481856128ab565b93506129148185602086016128bc565b61291d816126f5565b840191505092915050565b6000602082019050818103600083015261294281846128ef565b905092915050565b6000602082840312156129605761295f6125f0565b5b600061296e848285016126d6565b91505092915050565b600073ffffffffffffffffffffffffffffffffffffffff82169050919050565b60006129a282612977565b9050919050565b6129b281612997565b82525050565b60006020820190506129cd60008301846129a9565b92915050565b6129dc81612997565b81146129e757600080fd5b50565b6000813590506129f9816129d3565b92915050565b60008060408385031215612a1657612a156125f0565b5b6000612a24858286016129ea565b9250506020612a35858286016126d6565b9150509250929050565b600060208284031215612a5557612a546125f0565b5b6000612a63848285016129ea565b91505092915050565b600080600060608486031215612a8557612a846125f0565b5b6000612a93868287016129ea565b9350506020612aa4868287016129ea565b9250506040612ab5868287016126d6565b9150509250925092565b612ac8816126b5565b82525050565b6000602082019050612ae36000830184612abf565b92915050565b612af28161267f565b8114612afd57600080fd5b50565b600081359050612b0f81612ae9565b92915050565b60008060408385031215612b2c57612b2b6125f0565b5b6000612b3a858286016129ea565b9250506020612b4b85828601612b00565b9150509250929050565b60008060008060808587031215612b6f57612b6e6125f0565b5b6000612b7d878288016129ea565b9450506020612b8e878288016129ea565b9350506040612b9f878288016126d6565b925050606085013567ffffffffffffffff811115612bc057612bbf6125f5565b5b612bcc87828801612803565b91505092959194509250565b60008060408385031215612bef57612bee6125f0565b5b6000612bfd858286016129ea565b9250506020612c0e858286016129ea565b9150509250929050565b7f696e76616c696420746f6b656e49640000000000000000000000000000000000600082015250565b6000612c4e600f836128ab565b9150612c5982612c18565b602082019050919050565b60006020820190508181036000830152612c7d81612c41565b9050919050565b7f696e76616c6964207369676e6174757265000000000000000000000000000000600082015250565b6000612cba6011836128ab565b9150612cc582612c84565b602082019050919050565b60006020820190508181036000830152612ce981612cad565b9050919050565b6000606082019050612d0560008301866129a9565b612d126020830185612abf565b612d1f6040830184612abf565b949350505050565b7f4e487b7100000000000000000000000000000000000000000000000000000000600052602260045260246000fd5b60006002820490506001821680612d6e57607f821691505b602082108103612d8157612d80612d27565b5b50919050565b7f4552433732313a20617070726f76656420717565727920666f72206e6f6e657860008201527f697374656e7420746f6b656e0000000000000000000000000000000000000000602082015250565b6000612de3602c836128ab565b9150612dee82612d87565b604082019050919050565b60006020820190508181036000830152612e1281612dd6565b9050919050565b7f4552433732313a20617070726f76616c20746f2063757272656e74206f776e6560008201527f7200000000000000000000000000000000000000000000000000000000000000602082015250565b6000612e756021836128ab565b9150612e8082612e19565b604082019050919050565b60006020820190508181036000830152612ea481612e68565b9050919050565b7f4552433732313a20617070726f76652063616c6c6572206973206e6f74206f7760008201527f6e6572206e6f7220617070726f76656420666f7220616c6c0000000000000000602082015250565b6000612f076038836128ab565b9150612f1282612eab565b604082019050919050565b60006020820190508181036000830152612f3681612efa565b9050919050565b7f4f776e61626c653a2063616c6c6572206973206e6f7420746865206f776e6572600082015250565b6000612f736020836128ab565b9150612f7e82612f3d565b602082019050919050565b60006020820190508181036000830152612fa281612f66565b9050919050565b7f4552433732313a207472616e736665722063616c6c6572206973206e6f74206f60008201527f776e6572206e6f7220617070726f766564000000000000000000000000000000602082015250565b60006130056031836128ab565b915061301082612fa9565b604082019050919050565b6000602082019050818103600083015261303481612ff8565b9050919050565b7f4552433732313a206f776e657220717565727920666f72206e6f6e657869737460008201527f656e7420746f6b656e0000000000000000000000000000000000000000000000602082015250565b60006130976029836128ab565b91506130a28261303b565b604082019050919050565b600060208201905081810360008301526130c68161308a565b9050919050565b7f4552433732313a2062616c616e636520717565727920666f7220746865207a6560008201527f726f206164647265737300000000000000000000000000000000000000000000602082015250565b6000613129602a836128ab565b9150613134826130cd565b604082019050919050565b600060208201905081810360008301526131588161311c565b9050919050565b7f7468652063616c6c657220646f6573206e6f742068617665207065726d69737360008201527f696f6e7300000000000000000000000000000000000000000000000000000000602082015250565b60006131bb6024836128ab565b91506131c68261315f565b604082019050919050565b600060208201905081810360008301526131ea816131ae565b9050919050565b7f4e487b7100000000000000000000000000000000000000000000000000000000600052601160045260246000fd5b600061322b826126b5565b9150613236836126b5565b9250827fffffffffffffffffffffffffffffffffffffffffffffffffffffffffffffffff0382111561326b5761326a6131f1565b5b828201905092915050565b7f45786365656473207265736572766564207175616e7469747900000000000000600082015250565b60006132ac6019836128ab565b91506132b782613276565b602082019050919050565b600060208201905081810360008301526132db8161329f565b9050919050565b60006132ed826126b5565b91507fffffffffffffffffffffffffffffffffffffffffffffffffffffffffffffffff820361331f5761331e6131f1565b5b600182019050919050565b7f4552433732314d657461646174613a2055524920717565727920666f72206e6f60008201527f6e6578697374656e7420746f6b656e0000000000000000000000000000000000602082015250565b6000613386602f836128ab565b91506133918261332a565b604082019050919050565b600060208201905081810360008301526133b581613379565b9050919050565b600081905092915050565b60006133d2826128a0565b6133dc81856133bc565b93506133ec8185602086016128bc565b80840191505092915050565b600061340482856133c7565b915061341082846133c7565b91508190509392505050565b7f4f776e61626c653a206e6577206f776e657220697320746865207a65726f206160008201527f6464726573730000000000000000000000000000000000000000000000000000602082015250565b60006134786026836128ab565b91506134838261341c565b604082019050919050565b600060208201905081810360008301526134a78161346b565b9050919050565b6000819050919050565b6134c1816134ae565b82525050565b60006080820190506134dc60008301876134b8565b6134e960208301866129a9565b6134f66040830185612abf565b6135036060830184612abf565b95945050505050565b7f4552433732313a206d696e7420746f20746865207a65726f2061646472657373600082015250565b60006135426020836128ab565b915061354d8261350c565b602082019050919050565b6000602082019050818103600083015261357181613535565b9050919050565b7f4552433732313a20746f6b656e20616c7265616479206d696e74656400000000600082015250565b60006135ae601c836128ab565b91506135b982613578565b602082019050919050565b600060208201905081810360008301526135dd816135a1565b9050919050565b7f4552433732313a206f70657261746f7220717565727920666f72206e6f6e657860008201527f697374656e7420746f6b656e0000000000000000000000000000000000000000602082015250565b6000613640602c836128ab565b915061364b826135e4565b604082019050919050565b6000602082019050818103600083015261366f81613633565b9050919050565b7f4552433732313a207472616e736665722066726f6d20696e636f72726563742060008201527f6f776e6572000000000000000000000000000000000000000000000000000000602082015250565b60006136d26025836128ab565b91506136dd82613676565b604082019050919050565b60006020820190508181036000830152613701816136c5565b9050919050565b7f4552433732313a207472616e7366657220746f20746865207a65726f2061646460008201527f7265737300000000000000000000000000000000000000000000000000000000602082015250565b60006137646024836128ab565b915061376f82613708565b604082019050919050565b6000602082019050818103600083015261379381613757565b9050919050565b60006137a5826126b5565b91506137b0836126b5565b9250828210156137c3576137c26131f1565b5b828203905092915050565b7f4552433732313a20617070726f766520746f2063616c6c657200000000000000600082015250565b60006138046019836128ab565b915061380f826137ce565b602082019050919050565b60006020820190508181036000830152613833816137f7565b9050919050565b7f4552433732313a207472616e7366657220746f206e6f6e20455243373231526560008201527f63656976657220696d706c656d656e7465720000000000000000000000000000602082015250565b60006138966032836128ab565b91506138a18261383a565b604082019050919050565b600060208201905081810360008301526138c581613889565b9050919050565b7f4e487b7100000000000000000000000000000000000000000000000000000000600052601260045260246000fd5b6000613906826126b5565b9150613911836126b5565b925082613921576139206138cc565b5b828204905092915050565b6000613937826126b5565b9150613942836126b5565b925082613952576139516138cc565b5b828206905092915050565b7f4e487b7100000000000000000000000000000000000000000000000000000000600052603260045260246000fd5b600081519050919050565b600082825260208201905092915050565b60006139b38261398c565b6139bd8185613997565b93506139cd8185602086016128bc565b6139d6816126f5565b840191505092915050565b60006080820190506139f660008301876129a9565b613a0360208301866129a9565b613a106040830185612abf565b8181036060830152613a2281846139a8565b905095945050505050565b600081519050613a3c81612626565b92915050565b600060208284031215613a5857613a576125f0565b5b6000613a6684828501613a2d565b91505092915050565b7f1901000000000000000000000000000000000000000000000000000000000000600082015250565b6000613aa56002836133bc565b9150613ab082613a6f565b600282019050919050565b6000819050919050565b613ad6613ad1826134ae565b613abb565b82525050565b6000613ae782613a98565b9150613af38285613ac5565b602082019150613b038284613ac5565b6020820191508190509392505050565b7f4e487b7100000000000000000000000000000000000000000000000000000000600052602160045260246000fd5b7f45434453413a20696e76616c6964207369676e61747572650000000000000000600082015250565b6000613b786018836128ab565b9150613b8382613b42565b602082019050919050565b60006020820190508181036000830152613ba781613b6b565b9050919050565b7f45434453413a20696e76616c6964207369676e6174757265206c656e67746800600082015250565b6000613be4601f836128ab565b9150613bef82613bae565b602082019050919050565b60006020820190508181036000830152613c1381613bd7565b9050919050565b7f45434453413a20696e76616c6964207369676e6174757265202773272076616c60008201527f7565000000000000000000000000000000000000000000000000000000000000602082015250565b6000613c766022836128ab565b9150613c8182613c1a565b604082019050919050565b60006020820190508181036000830152613ca581613c69565b9050919050565b7f45434453413a20696e76616c6964207369676e6174757265202776272076616c60008201527f7565000000000000000000000000000000000000000000000000000000000000602082015250565b6000613d086022836128ab565b9150613d1382613cac565b604082019050919050565b60006020820190508181036000830152613d3781613cfb565b9050919050565b600060c082019050613d5360008301896134b8565b613d6060208301886134b8565b613d6d60408301876134b8565b613d7a6060830186612abf565b613d8760808301856129a9565b613d9460a08301846134b8565b979650505050505050565b600060ff82169050919050565b613db581613d9f565b82525050565b6000608082019050613dd060008301876134b8565b613ddd6020830186613dac565b613dea60408301856134b8565b613df760608301846134b8565b9594505050505056fea2646970667358221220da73bb4bbe8ca180c6006519f082015c2db28afb0cf8e76da058f70dee845ace64736f6c634300080d0033",
			"opcodes": "PUSH2 0x160 PUSH1 0x40 MSTORE PUSH1 0x1 PUSH1 0x7 SSTORE CALLVALUE DUP1 ISZERO PUSH3 0x17 JUMPI PUSH1 0x0 DUP1 REVERT JUMPDEST POP PUSH1 0x40 MLOAD PUSH3 0x4430 CODESIZE SUB DUP1 PUSH3 0x4430 DUP4 CODECOPY DUP2 DUP2 ADD PUSH1 0x40 MSTORE DUP2 ADD SWAP1 PUSH3 0x3D SWAP2 SWAP1 PUSH3 0x42B JUMP JUMPDEST PUSH1 0x40 MLOAD DUP1 PUSH1 0x40 ADD PUSH1 0x40 MSTORE DUP1 PUSH1 0x6 DUP2 MSTORE PUSH1 0x20 ADD PUSH32 0x506F534E46540000000000000000000000000000000000000000000000000000 DUP2 MSTORE POP PUSH1 0x40 MLOAD DUP1 PUSH1 0x40 ADD PUSH1 0x40 MSTORE DUP1 PUSH1 0x3 DUP2 MSTORE PUSH1 0x20 ADD PUSH32 0x312E300000000000000000000000000000000000000000000000000000000000 DUP2 MSTORE POP DUP3 PUSH1 0x40 MLOAD DUP1 PUSH1 0x40 ADD PUSH1 0x40 MSTORE DUP1 PUSH1 0x6 DUP2 MSTORE PUSH1 0x20 ADD PUSH32 0x506F534E46540000000000000000000000000000000000000000000000000000 DUP2 MSTORE POP PUSH1 0x40 MLOAD DUP1 PUSH1 0x40 ADD PUSH1 0x40 MSTORE DUP1 PUSH1 0x4 DUP2 MSTORE PUSH1 0x20 ADD PUSH32 0x504E465400000000000000000000000000000000000000000000000000000000 DUP2 MSTORE POP DUP2 PUSH1 0x0 SWAP1 DUP1 MLOAD SWAP1 PUSH1 0x20 ADD SWAP1 PUSH3 0x12E SWAP3 SWAP2 SWAP1 PUSH3 0x33B JUMP JUMPDEST POP DUP1 PUSH1 0x1 SWAP1 DUP1 MLOAD SWAP1 PUSH1 0x20 ADD SWAP1 PUSH3 0x147 SWAP3 SWAP2 SWAP1 PUSH3 0x33B JUMP JUMPDEST POP POP POP PUSH1 0x0 DUP4 DUP1 MLOAD SWAP1 PUSH1 0x20 ADD KECCAK256 SWAP1 POP PUSH1 0x0 DUP4 DUP1 MLOAD SWAP1 PUSH1 0x20 ADD KECCAK256 SWAP1 POP PUSH1 0x0 PUSH32 0xD87CD6EF79D4E2B95E15CE8ABF732DB51EC771F1CA2EDCCF22A46C729AC56472 SWAP1 POP DUP3 PUSH1 0xE0 DUP2 DUP2 MSTORE POP POP DUP2 PUSH2 0x100 DUP2 DUP2 MSTORE POP POP DUP4 PUSH2 0x140 DUP2 DUP2 MSTORE POP POP CHAINID PUSH1 0xA0 DUP2 DUP2 MSTORE POP POP PUSH3 0x1BD DUP2 DUP5 DUP5 DUP8 PUSH3 0x22E PUSH1 0x20 SHL PUSH1 0x20 SHR JUMP JUMPDEST PUSH1 0x80 DUP2 DUP2 MSTORE POP POP ADDRESS PUSH20 0xFFFFFFFFFFFFFFFFFFFFFFFFFFFFFFFFFFFFFFFF AND PUSH1 0xC0 DUP2 PUSH20 0xFFFFFFFFFFFFFFFFFFFFFFFFFFFFFFFFFFFFFFFF AND DUP2 MSTORE POP POP DUP1 PUSH2 0x120 DUP2 DUP2 MSTORE POP POP POP POP POP POP POP POP PUSH3 0x227 PUSH3 0x21B PUSH3 0x26D PUSH1 0x20 SHL PUSH1 0x20 SHR JUMP JUMPDEST PUSH3 0x275 PUSH1 0x20 SHL PUSH1 0x20 SHR JUMP JUMPDEST POP PUSH3 0x59F JUMP JUMPDEST PUSH1 0x0 DUP5 DUP5 DUP5 CHAINID ADDRESS DUP7 PUSH1 0x40 MLOAD PUSH1 0x20 ADD PUSH3 0x24D SWAP7 SWAP6 SWAP5 SWAP4 SWAP3 SWAP2 SWAP1 PUSH3 0x4CE JUMP JUMPDEST PUSH1 0x40 MLOAD PUSH1 0x20 DUP2 DUP4 SUB SUB DUP2 MSTORE SWAP1 PUSH1 0x40 MSTORE DUP1 MLOAD SWAP1 PUSH1 0x20 ADD KECCAK256 SWAP1 POP SWAP5 SWAP4 POP POP POP POP JUMP JUMPDEST PUSH1 0x0 CALLER SWAP1 POP SWAP1 JUMP JUMPDEST PUSH1 0x0 PUSH1 0x6 PUSH1 0x0 SWAP1 SLOAD SWAP1 PUSH2 0x100 EXP SWAP1 DIV PUSH20 0xFFFFFFFFFFFFFFFFFFFFFFFFFFFFFFFFFFFFFFFF AND SWAP1 POP DUP2 PUSH1 0x6 PUSH1 0x0 PUSH2 0x100 EXP DUP2 SLOAD DUP2 PUSH20 0xFFFFFFFFFFFFFFFFFFFFFFFFFFFFFFFFFFFFFFFF MUL NOT AND SWAP1 DUP4 PUSH20 0xFFFFFFFFFFFFFFFFFFFFFFFFFFFFFFFFFFFFFFFF AND MUL OR SWAP1 SSTORE POP DUP2 PUSH20 0xFFFFFFFFFFFFFFFFFFFFFFFFFFFFFFFFFFFFFFFF AND DUP2 PUSH20 0xFFFFFFFFFFFFFFFFFFFFFFFFFFFFFFFFFFFFFFFF AND PUSH32 0x8BE0079C531659141344CD1FD0A4F28419497F9722A3DAAFE3B4186F6B6457E0 PUSH1 0x40 MLOAD PUSH1 0x40 MLOAD DUP1 SWAP2 SUB SWAP1 LOG3 POP POP JUMP JUMPDEST DUP3 DUP1 SLOAD PUSH3 0x349 SWAP1 PUSH3 0x56A JUMP JUMPDEST SWAP1 PUSH1 0x0 MSTORE PUSH1 0x20 PUSH1 0x0 KECCAK256 SWAP1 PUSH1 0x1F ADD PUSH1 0x20 SWAP1 DIV DUP2 ADD SWAP3 DUP3 PUSH3 0x36D JUMPI PUSH1 0x0 DUP6 SSTORE PUSH3 0x3B9 JUMP JUMPDEST DUP3 PUSH1 0x1F LT PUSH3 0x388 JUMPI DUP1 MLOAD PUSH1 0xFF NOT AND DUP4 DUP1 ADD OR DUP6 SSTORE PUSH3 0x3B9 JUMP JUMPDEST DUP3 DUP1 ADD PUSH1 0x1 ADD DUP6 SSTORE DUP3 ISZERO PUSH3 0x3B9 JUMPI SWAP2 DUP3 ADD JUMPDEST DUP3 DUP2 GT ISZERO PUSH3 0x3B8 JUMPI DUP3 MLOAD DUP3 SSTORE SWAP2 PUSH1 0x20 ADD SWAP2 SWAP1 PUSH1 0x1 ADD SWAP1 PUSH3 0x39B JUMP JUMPDEST JUMPDEST POP SWAP1 POP PUSH3 0x3C8 SWAP2 SWAP1 PUSH3 0x3CC JUMP JUMPDEST POP SWAP1 JUMP JUMPDEST JUMPDEST DUP1 DUP3 GT ISZERO PUSH3 0x3E7 JUMPI PUSH1 0x0 DUP2 PUSH1 0x0 SWAP1 SSTORE POP PUSH1 0x1 ADD PUSH3 0x3CD JUMP JUMPDEST POP SWAP1 JUMP JUMPDEST PUSH1 0x0 DUP1 REVERT JUMPDEST PUSH1 0x0 DUP2 SWAP1 POP SWAP2 SWAP1 POP JUMP JUMPDEST PUSH3 0x405 DUP2 PUSH3 0x3F0 JUMP JUMPDEST DUP2 EQ PUSH3 0x411 JUMPI PUSH1 0x0 DUP1 REVERT JUMPDEST POP JUMP JUMPDEST PUSH1 0x0 DUP2 MLOAD SWAP1 POP PUSH3 0x425 DUP2 PUSH3 0x3FA JUMP JUMPDEST SWAP3 SWAP2 POP POP JUMP JUMPDEST PUSH1 0x0 PUSH1 0x20 DUP3 DUP5 SUB SLT ISZERO PUSH3 0x444 JUMPI PUSH3 0x443 PUSH3 0x3EB JUMP JUMPDEST JUMPDEST PUSH1 0x0 PUSH3 0x454 DUP5 DUP3 DUP6 ADD PUSH3 0x414 JUMP JUMPDEST SWAP2 POP POP SWAP3 SWAP2 POP POP JUMP JUMPDEST PUSH3 0x468 DUP2 PUSH3 0x3F0 JUMP JUMPDEST DUP3 MSTORE POP POP JUMP JUMPDEST PUSH1 0x0 DUP2 SWAP1 POP SWAP2 SWAP1 POP JUMP JUMPDEST PUSH3 0x483 DUP2 PUSH3 0x46E JUMP JUMPDEST DUP3 MSTORE POP POP JUMP JUMPDEST PUSH1 0x0 PUSH20 0xFFFFFFFFFFFFFFFFFFFFFFFFFFFFFFFFFFFFFFFF DUP3 AND SWAP1 POP SWAP2 SWAP1 POP JUMP JUMPDEST PUSH1 0x0 PUSH3 0x4B6 DUP3 PUSH3 0x489 JUMP JUMPDEST SWAP1 POP SWAP2 SWAP1 POP JUMP JUMPDEST PUSH3 0x4C8 DUP2 PUSH3 0x4A9 JUMP JUMPDEST DUP3 MSTORE POP POP JUMP JUMPDEST PUSH1 0x0 PUSH1 0xC0 DUP3 ADD SWAP1 POP PUSH3 0x4E5 PUSH1 0x0 DUP4 ADD DUP10 PUSH3 0x45D JUMP JUMPDEST PUSH3 0x4F4 PUSH1 0x20 DUP4 ADD DUP9 PUSH3 0x45D JUMP JUMPDEST PUSH3 0x503 PUSH1 0x40 DUP4 ADD DUP8 PUSH3 0x45D JUMP JUMPDEST PUSH3 0x512 PUSH1 0x60 DUP4 ADD DUP7 PUSH3 0x478 JUMP JUMPDEST PUSH3 0x521 PUSH1 0x80 DUP4 ADD DUP6 PUSH3 0x4BD JUMP JUMPDEST PUSH3 0x530 PUSH1 0xA0 DUP4 ADD DUP5 PUSH3 0x45D JUMP JUMPDEST SWAP8 SWAP7 POP POP POP POP POP POP POP JUMP JUMPDEST PUSH32 0x4E487B7100000000000000000000000000000000000000000000000000000000 PUSH1 0x0 MSTORE PUSH1 0x22 PUSH1 0x4 MSTORE PUSH1 0x24 PUSH1 0x0 REVERT JUMPDEST PUSH1 0x0 PUSH1 0x2 DUP3 DIV SWAP1 POP PUSH1 0x1 DUP3 AND DUP1 PUSH3 0x583 JUMPI PUSH1 0x7F DUP3 AND SWAP2 POP JUMPDEST PUSH1 0x20 DUP3 LT DUP2 SUB PUSH3 0x599 JUMPI PUSH3 0x598 PUSH3 0x53B JUMP JUMPDEST JUMPDEST POP SWAP2 SWAP1 POP JUMP JUMPDEST PUSH1 0x80 MLOAD PUSH1 0xA0 MLOAD PUSH1 0xC0 MLOAD PUSH1 0xE0 MLOAD PUSH2 0x100 MLOAD PUSH2 0x120 MLOAD PUSH2 0x140 MLOAD PUSH2 0x3E36 PUSH3 0x5FA PUSH1 0x0 CODECOPY PUSH1 0x0 PUSH2 0x2171 ADD MSTORE PUSH1 0x0 PUSH2 0x210E ADD MSTORE PUSH1 0x0 PUSH2 0x2150 ADD MSTORE PUSH1 0x0 PUSH2 0x212F ADD MSTORE PUSH1 0x0 PUSH2 0x2064 ADD MSTORE PUSH1 0x0 PUSH2 0x20BA ADD MSTORE PUSH1 0x0 PUSH2 0x20E3 ADD MSTORE PUSH2 0x3E36 PUSH1 0x0 RETURN INVALID PUSH1 0x80 PUSH1 0x40 MSTORE CALLVALUE DUP1 ISZERO PUSH2 0x10 JUMPI PUSH1 0x0 DUP1 REVERT JUMPDEST POP PUSH1 0x4 CALLDATASIZE LT PUSH2 0x158 JUMPI PUSH1 0x0 CALLDATALOAD PUSH1 0xE0 SHR DUP1 PUSH4 0x6352211E GT PUSH2 0xC3 JUMPI DUP1 PUSH4 0xA22CB465 GT PUSH2 0x7C JUMPI DUP1 PUSH4 0xA22CB465 EQ PUSH2 0x3B1 JUMPI DUP1 PUSH4 0xAF3DA2F4 EQ PUSH2 0x3CD JUMPI DUP1 PUSH4 0xB88D4FDE EQ PUSH2 0x3E9 JUMPI DUP1 PUSH4 0xC87B56DD EQ PUSH2 0x405 JUMPI DUP1 PUSH4 0xE985E9C5 EQ PUSH2 0x435 JUMPI DUP1 PUSH4 0xF2FDE38B EQ PUSH2 0x465 JUMPI PUSH2 0x158 JUMP JUMPDEST DUP1 PUSH4 0x6352211E EQ PUSH2 0x2EF JUMPI DUP1 PUSH4 0x70480275 EQ PUSH2 0x31F JUMPI DUP1 PUSH4 0x70A08231 EQ PUSH2 0x33B JUMPI DUP1 PUSH4 0x715018A6 EQ PUSH2 0x36B JUMPI DUP1 PUSH4 0x8DA5CB5B EQ PUSH2 0x375 JUMPI DUP1 PUSH4 0x95D89B41 EQ PUSH2 0x393 JUMPI PUSH2 0x158 JUMP JUMPDEST DUP1 PUSH4 0x23B872DD GT PUSH2 0x115 JUMPI DUP1 PUSH4 0x23B872DD EQ PUSH2 0x22F JUMPI DUP1 PUSH4 0x3E5235B3 EQ PUSH2 0x24B JUMPI DUP1 PUSH4 0x42842E0E EQ PUSH2 0x269 JUMPI DUP1 PUSH4 0x429B62E5 EQ PUSH2 0x285 JUMPI DUP1 PUSH4 0x49025B99 EQ PUSH2 0x2B5 JUMPI DUP1 PUSH4 0x56B7E61D EQ PUSH2 0x2D3 JUMPI PUSH2 0x158 JUMP JUMPDEST DUP1 PUSH4 0x1FFC9A7 EQ PUSH2 0x15D JUMPI DUP1 PUSH4 0x2046C42 EQ PUSH2 0x18D JUMPI DUP1 PUSH4 0x6FDDE03 EQ PUSH2 0x1A9 JUMPI DUP1 PUSH4 0x81812FC EQ PUSH2 0x1C7 JUMPI DUP1 PUSH4 0x95EA7B3 EQ PUSH2 0x1F7 JUMPI DUP1 PUSH4 0x1785F53C EQ PUSH2 0x213 JUMPI JUMPDEST PUSH1 0x0 DUP1 REVERT JUMPDEST PUSH2 0x177 PUSH1 0x4 DUP1 CALLDATASIZE SUB DUP2 ADD SWAP1 PUSH2 0x172 SWAP2 SWAP1 PUSH2 0x2652 JUMP JUMPDEST PUSH2 0x481 JUMP JUMPDEST PUSH1 0x40 MLOAD PUSH2 0x184 SWAP2 SWAP1 PUSH2 0x269A JUMP JUMPDEST PUSH1 0x40 MLOAD DUP1 SWAP2 SUB SWAP1 RETURN JUMPDEST PUSH2 0x1A7 PUSH1 0x4 DUP1 CALLDATASIZE SUB DUP2 ADD SWAP1 PUSH2 0x1A2 SWAP2 SWAP1 PUSH2 0x2831 JUMP JUMPDEST PUSH2 0x563 JUMP JUMPDEST STOP JUMPDEST PUSH2 0x1B1 PUSH2 0x70A JUMP JUMPDEST PUSH1 0x40 MLOAD PUSH2 0x1BE SWAP2 SWAP1 PUSH2 0x2928 JUMP JUMPDEST PUSH1 0x40 MLOAD DUP1 SWAP2 SUB SWAP1 RETURN JUMPDEST PUSH2 0x1E1 PUSH1 0x4 DUP1 CALLDATASIZE SUB DUP2 ADD SWAP1 PUSH2 0x1DC SWAP2 SWAP1 PUSH2 0x294A JUMP JUMPDEST PUSH2 0x79C JUMP JUMPDEST PUSH1 0x40 MLOAD PUSH2 0x1EE SWAP2 SWAP1 PUSH2 0x29B8 JUMP JUMPDEST PUSH1 0x40 MLOAD DUP1 SWAP2 SUB SWAP1 RETURN JUMPDEST PUSH2 0x211 PUSH1 0x4 DUP1 CALLDATASIZE SUB DUP2 ADD SWAP1 PUSH2 0x20C SWAP2 SWAP1 PUSH2 0x29FF JUMP JUMPDEST PUSH2 0x821 JUMP JUMPDEST STOP JUMPDEST PUSH2 0x22D PUSH1 0x4 DUP1 CALLDATASIZE SUB DUP2 ADD SWAP1 PUSH2 0x228 SWAP2 SWAP1 PUSH2 0x2A3F JUMP JUMPDEST PUSH2 0x938 JUMP JUMPDEST STOP JUMPDEST PUSH2 0x249 PUSH1 0x4 DUP1 CALLDATASIZE SUB DUP2 ADD SWAP1 PUSH2 0x244 SWAP2 SWAP1 PUSH2 0x2A6C JUMP JUMPDEST PUSH2 0xA0F JUMP JUMPDEST STOP JUMPDEST PUSH2 0x253 PUSH2 0xA6F JUMP JUMPDEST PUSH1 0x40 MLOAD PUSH2 0x260 SWAP2 SWAP1 PUSH2 0x2ACE JUMP JUMPDEST PUSH1 0x40 MLOAD DUP1 SWAP2 SUB SWAP1 RETURN JUMPDEST PUSH2 0x283 PUSH1 0x4 DUP1 CALLDATASIZE SUB DUP2 ADD SWAP1 PUSH2 0x27E SWAP2 SWAP1 PUSH2 0x2A6C JUMP JUMPDEST PUSH2 0xA75 JUMP JUMPDEST STOP JUMPDEST PUSH2 0x29F PUSH1 0x4 DUP1 CALLDATASIZE SUB DUP2 ADD SWAP1 PUSH2 0x29A SWAP2 SWAP1 PUSH2 0x2A3F JUMP JUMPDEST PUSH2 0xA95 JUMP JUMPDEST PUSH1 0x40 MLOAD PUSH2 0x2AC SWAP2 SWAP1 PUSH2 0x269A JUMP JUMPDEST PUSH1 0x40 MLOAD DUP1 SWAP2 SUB SWAP1 RETURN JUMPDEST PUSH2 0x2BD PUSH2 0xAB5 JUMP JUMPDEST PUSH1 0x40 MLOAD PUSH2 0x2CA SWAP2 SWAP1 PUSH2 0x2ACE JUMP JUMPDEST PUSH1 0x40 MLOAD DUP1 SWAP2 SUB SWAP1 RETURN JUMPDEST PUSH2 0x2ED PUSH1 0x4 DUP1 CALLDATASIZE SUB DUP2 ADD SWAP1 PUSH2 0x2E8 SWAP2 SWAP1 PUSH2 0x2831 JUMP JUMPDEST PUSH2 0xABC JUMP JUMPDEST STOP JUMPDEST PUSH2 0x309 PUSH1 0x4 DUP1 CALLDATASIZE SUB DUP2 ADD SWAP1 PUSH2 0x304 SWAP2 SWAP1 PUSH2 0x294A JUMP JUMPDEST PUSH2 0xC01 JUMP JUMPDEST PUSH1 0x40 MLOAD PUSH2 0x316 SWAP2 SWAP1 PUSH2 0x29B8 JUMP JUMPDEST PUSH1 0x40 MLOAD DUP1 SWAP2 SUB SWAP1 RETURN JUMPDEST PUSH2 0x339 PUSH1 0x4 DUP1 CALLDATASIZE SUB DUP2 ADD SWAP1 PUSH2 0x334 SWAP2 SWAP1 PUSH2 0x2A3F JUMP JUMPDEST PUSH2 0xCB2 JUMP JUMPDEST STOP JUMPDEST PUSH2 0x355 PUSH1 0x4 DUP1 CALLDATASIZE SUB DUP2 ADD SWAP1 PUSH2 0x350 SWAP2 SWAP1 PUSH2 0x2A3F JUMP JUMPDEST PUSH2 0xD89 JUMP JUMPDEST PUSH1 0x40 MLOAD PUSH2 0x362 SWAP2 SWAP1 PUSH2 0x2ACE JUMP JUMPDEST PUSH1 0x40 MLOAD DUP1 SWAP2 SUB SWAP1 RETURN JUMPDEST PUSH2 0x373 PUSH2 0xE40 JUMP JUMPDEST STOP JUMPDEST PUSH2 0x37D PUSH2 0xEC8 JUMP JUMPDEST PUSH1 0x40 MLOAD PUSH2 0x38A SWAP2 SWAP1 PUSH2 0x29B8 JUMP JUMPDEST PUSH1 0x40 MLOAD DUP1 SWAP2 SUB SWAP1 RETURN JUMPDEST PUSH2 0x39B PUSH2 0xEF2 JUMP JUMPDEST PUSH1 0x40 MLOAD PUSH2 0x3A8 SWAP2 SWAP1 PUSH2 0x2928 JUMP JUMPDEST PUSH1 0x40 MLOAD DUP1 SWAP2 SUB SWAP1 RETURN JUMPDEST PUSH2 0x3CB PUSH1 0x4 DUP1 CALLDATASIZE SUB DUP2 ADD SWAP1 PUSH2 0x3C6 SWAP2 SWAP1 PUSH2 0x2B15 JUMP JUMPDEST PUSH2 0xF84 JUMP JUMPDEST STOP JUMPDEST PUSH2 0x3E7 PUSH1 0x4 DUP1 CALLDATASIZE SUB DUP2 ADD SWAP1 PUSH2 0x3E2 SWAP2 SWAP1 PUSH2 0x29FF JUMP JUMPDEST PUSH2 0xF9A JUMP JUMPDEST STOP JUMPDEST PUSH2 0x403 PUSH1 0x4 DUP1 CALLDATASIZE SUB DUP2 ADD SWAP1 PUSH2 0x3FE SWAP2 SWAP1 PUSH2 0x2B55 JUMP JUMPDEST PUSH2 0x10CA JUMP JUMPDEST STOP JUMPDEST PUSH2 0x41F PUSH1 0x4 DUP1 CALLDATASIZE SUB DUP2 ADD SWAP1 PUSH2 0x41A SWAP2 SWAP1 PUSH2 0x294A JUMP JUMPDEST PUSH2 0x112C JUMP JUMPDEST PUSH1 0x40 MLOAD PUSH2 0x42C SWAP2 SWAP1 PUSH2 0x2928 JUMP JUMPDEST PUSH1 0x40 MLOAD DUP1 SWAP2 SUB SWAP1 RETURN JUMPDEST PUSH2 0x44F PUSH1 0x4 DUP1 CALLDATASIZE SUB DUP2 ADD SWAP1 PUSH2 0x44A SWAP2 SWAP1 PUSH2 0x2BD8 JUMP JUMPDEST PUSH2 0x11D3 JUMP JUMPDEST PUSH1 0x40 MLOAD PUSH2 0x45C SWAP2 SWAP1 PUSH2 0x269A JUMP JUMPDEST PUSH1 0x40 MLOAD DUP1 SWAP2 SUB SWAP1 RETURN JUMPDEST PUSH2 0x47F PUSH1 0x4 DUP1 CALLDATASIZE SUB DUP2 ADD SWAP1 PUSH2 0x47A SWAP2 SWAP1 PUSH2 0x2A3F JUMP JUMPDEST PUSH2 0x1267 JUMP JUMPDEST STOP JUMPDEST PUSH1 0x0 PUSH32 0x80AC58CD00000000000000000000000000000000000000000000000000000000 PUSH28 0xFFFFFFFFFFFFFFFFFFFFFFFFFFFFFFFFFFFFFFFFFFFFFFFFFFFFFFFF NOT AND DUP3 PUSH28 0xFFFFFFFFFFFFFFFFFFFFFFFFFFFFFFFFFFFFFFFFFFFFFFFFFFFFFFFF NOT AND EQ DUP1 PUSH2 0x54C JUMPI POP PUSH32 0x5B5E139F00000000000000000000000000000000000000000000000000000000 PUSH28 0xFFFFFFFFFFFFFFFFFFFFFFFFFFFFFFFFFFFFFFFFFFFFFFFFFFFFFFFF NOT AND DUP3 PUSH28 0xFFFFFFFFFFFFFFFFFFFFFFFFFFFFFFFFFFFFFFFFFFFFFFFFFFFFFFFF NOT AND EQ JUMPDEST DUP1 PUSH2 0x55C JUMPI POP PUSH2 0x55B DUP3 PUSH2 0x135E JUMP JUMPDEST JUMPDEST SWAP1 POP SWAP2 SWAP1 POP JUMP JUMPDEST PUSH3 0xF4240 DUP4 LT ISZERO PUSH2 0x5A9 JUMPI PUSH1 0x40 MLOAD PUSH32 0x8C379A000000000000000000000000000000000000000000000000000000000 DUP2 MSTORE PUSH1 0x4 ADD PUSH2 0x5A0 SWAP1 PUSH2 0x2C64 JUMP JUMPDEST PUSH1 0x40 MLOAD DUP1 SWAP2 SUB SWAP1 REVERT JUMPDEST PUSH1 0x0 ISZERO ISZERO PUSH1 0x9 PUSH1 0x0 DUP5 DUP2 MSTORE PUSH1 0x20 ADD SWAP1 DUP2 MSTORE PUSH1 0x20 ADD PUSH1 0x0 KECCAK256 PUSH1 0x0 SWAP1 SLOAD SWAP1 PUSH2 0x100 EXP SWAP1 DIV PUSH1 0xFF AND ISZERO ISZERO EQ DUP1 ISZERO PUSH2 0x647 JUMPI POP PUSH1 0x1 ISZERO ISZERO PUSH1 0x8 PUSH1 0x0 PUSH2 0x5FB PUSH2 0x5F5 PUSH2 0x5EE PUSH2 0x13C8 JUMP JUMPDEST DUP9 DUP9 PUSH2 0x13D0 JUMP JUMPDEST DUP6 PUSH2 0x142B JUMP JUMPDEST PUSH20 0xFFFFFFFFFFFFFFFFFFFFFFFFFFFFFFFFFFFFFFFF AND PUSH20 0xFFFFFFFFFFFFFFFFFFFFFFFFFFFFFFFFFFFFFFFF AND DUP2 MSTORE PUSH1 0x20 ADD SWAP1 DUP2 MSTORE PUSH1 0x20 ADD PUSH1 0x0 KECCAK256 PUSH1 0x0 SWAP1 SLOAD SWAP1 PUSH2 0x100 EXP SWAP1 DIV PUSH1 0xFF AND ISZERO ISZERO EQ JUMPDEST PUSH2 0x686 JUMPI PUSH1 0x40 MLOAD PUSH32 0x8C379A000000000000000000000000000000000000000000000000000000000 DUP2 MSTORE PUSH1 0x4 ADD PUSH2 0x67D SWAP1 PUSH2 0x2CD0 JUMP JUMPDEST PUSH1 0x40 MLOAD DUP1 SWAP2 SUB SWAP1 REVERT JUMPDEST PUSH2 0x697 PUSH2 0x691 PUSH2 0x13C8 JUMP JUMPDEST DUP5 PUSH2 0x1447 JUMP JUMPDEST PUSH1 0x1 PUSH1 0x9 PUSH1 0x0 DUP5 DUP2 MSTORE PUSH1 0x20 ADD SWAP1 DUP2 MSTORE PUSH1 0x20 ADD PUSH1 0x0 KECCAK256 PUSH1 0x0 PUSH2 0x100 EXP DUP2 SLOAD DUP2 PUSH1 0xFF MUL NOT AND SWAP1 DUP4 ISZERO ISZERO MUL OR SWAP1 SSTORE POP PUSH32 0x8E52DB99CE3EA11F5CE05E25A6D21952EF9C65A56F572B7B6039F3DC608808C8 PUSH2 0x6EC PUSH2 0x13C8 JUMP JUMPDEST DUP5 DUP5 PUSH1 0x40 MLOAD PUSH2 0x6FD SWAP4 SWAP3 SWAP2 SWAP1 PUSH2 0x2CF0 JUMP JUMPDEST PUSH1 0x40 MLOAD DUP1 SWAP2 SUB SWAP1 LOG1 POP POP POP JUMP JUMPDEST PUSH1 0x60 PUSH1 0x0 DUP1 SLOAD PUSH2 0x719 SWAP1 PUSH2 0x2D56 JUMP JUMPDEST DUP1 PUSH1 0x1F ADD PUSH1 0x20 DUP1 SWAP2 DIV MUL PUSH1 0x20 ADD PUSH1 0x40 MLOAD SWAP1 DUP2 ADD PUSH1 0x40 MSTORE DUP1 SWAP3 SWAP2 SWAP1 DUP2 DUP2 MSTORE PUSH1 0x20 ADD DUP3 DUP1 SLOAD PUSH2 0x745 SWAP1 PUSH2 0x2D56 JUMP JUMPDEST DUP1 ISZERO PUSH2 0x792 JUMPI DUP1 PUSH1 0x1F LT PUSH2 0x767 JUMPI PUSH2 0x100 DUP1 DUP4 SLOAD DIV MUL DUP4 MSTORE SWAP2 PUSH1 0x20 ADD SWAP2 PUSH2 0x792 JUMP JUMPDEST DUP3 ADD SWAP2 SWAP1 PUSH1 0x0 MSTORE PUSH1 0x20 PUSH1 0x0 KECCAK256 SWAP1 JUMPDEST DUP2 SLOAD DUP2 MSTORE SWAP1 PUSH1 0x1 ADD SWAP1 PUSH1 0x20 ADD DUP1 DUP4 GT PUSH2 0x775 JUMPI DUP3 SWAP1 SUB PUSH1 0x1F AND DUP3 ADD SWAP2 JUMPDEST POP POP POP POP POP SWAP1 POP SWAP1 JUMP JUMPDEST PUSH1 0x0 PUSH2 0x7A7 DUP3 PUSH2 0x1620 JUMP JUMPDEST PUSH2 0x7E6 JUMPI PUSH1 0x40 MLOAD PUSH32 0x8C379A000000000000000000000000000000000000000000000000000000000 DUP2 MSTORE PUSH1 0x4 ADD PUSH2 0x7DD SWAP1 PUSH2 0x2DF9 JUMP JUMPDEST PUSH1 0x40 MLOAD DUP1 SWAP2 SUB SWAP1 REVERT JUMPDEST PUSH1 0x4 PUSH1 0x0 DUP4 DUP2 MSTORE PUSH1 0x20 ADD SWAP1 DUP2 MSTORE PUSH1 0x20 ADD PUSH1 0x0 KECCAK256 PUSH1 0x0 SWAP1 SLOAD SWAP1 PUSH2 0x100 EXP SWAP1 DIV PUSH20 0xFFFFFFFFFFFFFFFFFFFFFFFFFFFFFFFFFFFFFFFF AND SWAP1 POP SWAP2 SWAP1 POP JUMP JUMPDEST PUSH1 0x0 PUSH2 0x82C DUP3 PUSH2 0xC01 JUMP JUMPDEST SWAP1 POP DUP1 PUSH20 0xFFFFFFFFFFFFFFFFFFFFFFFFFFFFFFFFFFFFFFFF AND DUP4 PUSH20 0xFFFFFFFFFFFFFFFFFFFFFFFFFFFFFFFFFFFFFFFF AND SUB PUSH2 0x89C JUMPI PUSH1 0x40 MLOAD PUSH32 0x8C379A000000000000000000000000000000000000000000000000000000000 DUP2 MSTORE PUSH1 0x4 ADD PUSH2 0x893 SWAP1 PUSH2 0x2E8B JUMP JUMPDEST PUSH1 0x40 MLOAD DUP1 SWAP2 SUB SWAP1 REVERT JUMPDEST DUP1 PUSH20 0xFFFFFFFFFFFFFFFFFFFFFFFFFFFFFFFFFFFFFFFF AND PUSH2 0x8BB PUSH2 0x13C8 JUMP JUMPDEST PUSH20 0xFFFFFFFFFFFFFFFFFFFFFFFFFFFFFFFFFFFFFFFF AND EQ DUP1 PUSH2 0x8EA JUMPI POP PUSH2 0x8E9 DUP2 PUSH2 0x8E4 PUSH2 0x13C8 JUMP JUMPDEST PUSH2 0x11D3 JUMP JUMPDEST JUMPDEST PUSH2 0x929 JUMPI PUSH1 0x40 MLOAD PUSH32 0x8C379A000000000000000000000000000000000000000000000000000000000 DUP2 MSTORE PUSH1 0x4 ADD PUSH2 0x920 SWAP1 PUSH2 0x2F1D JUMP JUMPDEST PUSH1 0x40 MLOAD DUP1 SWAP2 SUB SWAP1 REVERT JUMPDEST PUSH2 0x933 DUP4 DUP4 PUSH2 0x168C JUMP JUMPDEST POP POP POP JUMP JUMPDEST PUSH2 0x940 PUSH2 0x13C8 JUMP JUMPDEST PUSH20 0xFFFFFFFFFFFFFFFFFFFFFFFFFFFFFFFFFFFFFFFF AND PUSH2 0x95E PUSH2 0xEC8 JUMP JUMPDEST PUSH20 0xFFFFFFFFFFFFFFFFFFFFFFFFFFFFFFFFFFFFFFFF AND EQ PUSH2 0x9B4 JUMPI PUSH1 0x40 MLOAD PUSH32 0x8C379A000000000000000000000000000000000000000000000000000000000 DUP2 MSTORE PUSH1 0x4 ADD PUSH2 0x9AB SWAP1 PUSH2 0x2F89 JUMP JUMPDEST PUSH1 0x40 MLOAD DUP1 SWAP2 SUB SWAP1 REVERT JUMPDEST PUSH1 0x0 PUSH1 0x8 PUSH1 0x0 DUP4 PUSH20 0xFFFFFFFFFFFFFFFFFFFFFFFFFFFFFFFFFFFFFFFF AND PUSH20 0xFFFFFFFFFFFFFFFFFFFFFFFFFFFFFFFFFFFFFFFF AND DUP2 MSTORE PUSH1 0x20 ADD SWAP1 DUP2 MSTORE PUSH1 0x20 ADD PUSH1 0x0 KECCAK256 PUSH1 0x0 PUSH2 0x100 EXP DUP2 SLOAD DUP2 PUSH1 0xFF MUL NOT AND SWAP1 DUP4 ISZERO ISZERO MUL OR SWAP1 SSTORE POP POP JUMP JUMPDEST PUSH2 0xA20 PUSH2 0xA1A PUSH2 0x13C8 JUMP JUMPDEST DUP3 PUSH2 0x1745 JUMP JUMPDEST PUSH2 0xA5F JUMPI PUSH1 0x40 MLOAD PUSH32 0x8C379A000000000000000000000000000000000000000000000000000000000 DUP2 MSTORE PUSH1 0x4 ADD PUSH2 0xA56 SWAP1 PUSH2 0x301B JUMP JUMPDEST PUSH1 0x40 MLOAD DUP1 SWAP2 SUB SWAP1 REVERT JUMPDEST PUSH2 0xA6A DUP4 DUP4 DUP4 PUSH2 0x1823 JUMP JUMPDEST POP POP POP JUMP JUMPDEST PUSH1 0x7 SLOAD DUP2 JUMP JUMPDEST PUSH2 0xA90 DUP4 DUP4 DUP4 PUSH1 0x40 MLOAD DUP1 PUSH1 0x20 ADD PUSH1 0x40 MSTORE DUP1 PUSH1 0x0 DUP2 MSTORE POP PUSH2 0x10CA JUMP JUMPDEST POP POP POP JUMP JUMPDEST PUSH1 0x8 PUSH1 0x20 MSTORE DUP1 PUSH1 0x0 MSTORE PUSH1 0x40 PUSH1 0x0 KECCAK256 PUSH1 0x0 SWAP2 POP SLOAD SWAP1 PUSH2 0x100 EXP SWAP1 DIV PUSH1 0xFF AND DUP2 JUMP JUMPDEST PUSH3 0xF4240 DUP2 JUMP JUMPDEST PUSH1 0x0 ISZERO ISZERO PUSH1 0x9 PUSH1 0x0 DUP5 DUP2 MSTORE PUSH1 0x20 ADD SWAP1 DUP2 MSTORE PUSH1 0x20 ADD PUSH1 0x0 KECCAK256 PUSH1 0x0 SWAP1 SLOAD SWAP1 PUSH2 0x100 EXP SWAP1 DIV PUSH1 0xFF AND ISZERO ISZERO EQ DUP1 ISZERO PUSH2 0xB5A JUMPI POP PUSH1 0x1 ISZERO ISZERO PUSH1 0x8 PUSH1 0x0 PUSH2 0xB0E PUSH2 0xB08 PUSH2 0xB01 PUSH2 0x13C8 JUMP JUMPDEST DUP9 DUP9 PUSH2 0x13D0 JUMP JUMPDEST DUP6 PUSH2 0x142B JUMP JUMPDEST PUSH20 0xFFFFFFFFFFFFFFFFFFFFFFFFFFFFFFFFFFFFFFFF AND PUSH20 0xFFFFFFFFFFFFFFFFFFFFFFFFFFFFFFFFFFFFFFFF AND DUP2 MSTORE PUSH1 0x20 ADD SWAP1 DUP2 MSTORE PUSH1 0x20 ADD PUSH1 0x0 KECCAK256 PUSH1 0x0 SWAP1 SLOAD SWAP1 PUSH2 0x100 EXP SWAP1 DIV PUSH1 0xFF AND ISZERO ISZERO EQ JUMPDEST PUSH2 0xB99 JUMPI PUSH1 0x40 MLOAD PUSH32 0x8C379A000000000000000000000000000000000000000000000000000000000 DUP2 MSTORE PUSH1 0x4 ADD PUSH2 0xB90 SWAP1 PUSH2 0x2CD0 JUMP JUMPDEST PUSH1 0x40 MLOAD DUP1 SWAP2 SUB SWAP1 REVERT JUMPDEST PUSH1 0x1 PUSH1 0x9 PUSH1 0x0 DUP5 DUP2 MSTORE PUSH1 0x20 ADD SWAP1 DUP2 MSTORE PUSH1 0x20 ADD PUSH1 0x0 KECCAK256 PUSH1 0x0 PUSH2 0x100 EXP DUP2 SLOAD DUP2 PUSH1 0xFF MUL NOT AND SWAP1 DUP4 ISZERO ISZERO MUL OR SWAP1 SSTORE POP PUSH32 0xD63E0C57431CD17975151933D13435C8DAC5628A5DA7D22D0962C6884C86B51C DUP3 PUSH1 0x40 MLOAD PUSH2 0xBF4 SWAP2 SWAP1 PUSH2 0x2ACE JUMP JUMPDEST PUSH1 0x40 MLOAD DUP1 SWAP2 SUB SWAP1 LOG1 POP POP POP JUMP JUMPDEST PUSH1 0x0 DUP1 PUSH1 0x2 PUSH1 0x0 DUP5 DUP2 MSTORE PUSH1 0x20 ADD SWAP1 DUP2 MSTORE PUSH1 0x20 ADD PUSH1 0x0 KECCAK256 PUSH1 0x0 SWAP1 SLOAD SWAP1 PUSH2 0x100 EXP SWAP1 DIV PUSH20 0xFFFFFFFFFFFFFFFFFFFFFFFFFFFFFFFFFFFFFFFF AND SWAP1 POP PUSH1 0x0 PUSH20 0xFFFFFFFFFFFFFFFFFFFFFFFFFFFFFFFFFFFFFFFF AND DUP2 PUSH20 0xFFFFFFFFFFFFFFFFFFFFFFFFFFFFFFFFFFFFFFFF AND SUB PUSH2 0xCA9 JUMPI PUSH1 0x40 MLOAD PUSH32 0x8C379A000000000000000000000000000000000000000000000000000000000 DUP2 MSTORE PUSH1 0x4 ADD PUSH2 0xCA0 SWAP1 PUSH2 0x30AD JUMP JUMPDEST PUSH1 0x40 MLOAD DUP1 SWAP2 SUB SWAP1 REVERT JUMPDEST DUP1 SWAP2 POP POP SWAP2 SWAP1 POP JUMP JUMPDEST PUSH2 0xCBA PUSH2 0x13C8 JUMP JUMPDEST PUSH20 0xFFFFFFFFFFFFFFFFFFFFFFFFFFFFFFFFFFFFFFFF AND PUSH2 0xCD8 PUSH2 0xEC8 JUMP JUMPDEST PUSH20 0xFFFFFFFFFFFFFFFFFFFFFFFFFFFFFFFFFFFFFFFF AND EQ PUSH2 0xD2E JUMPI PUSH1 0x40 MLOAD PUSH32 0x8C379A000000000000000000000000000000000000000000000000000000000 DUP2 MSTORE PUSH1 0x4 ADD PUSH2 0xD25 SWAP1 PUSH2 0x2F89 JUMP JUMPDEST PUSH1 0x40 MLOAD DUP1 SWAP2 SUB SWAP1 REVERT JUMPDEST PUSH1 0x1 PUSH1 0x8 PUSH1 0x0 DUP4 PUSH20 0xFFFFFFFFFFFFFFFFFFFFFFFFFFFFFFFFFFFFFFFF AND PUSH20 0xFFFFFFFFFFFFFFFFFFFFFFFFFFFFFFFFFFFFFFFF AND DUP2 MSTORE PUSH1 0x20 ADD SWAP1 DUP2 MSTORE PUSH1 0x20 ADD PUSH1 0x0 KECCAK256 PUSH1 0x0 PUSH2 0x100 EXP DUP2 SLOAD DUP2 PUSH1 0xFF MUL NOT AND SWAP1 DUP4 ISZERO ISZERO MUL OR SWAP1 SSTORE POP POP JUMP JUMPDEST PUSH1 0x0 DUP1 PUSH20 0xFFFFFFFFFFFFFFFFFFFFFFFFFFFFFFFFFFFFFFFF AND DUP3 PUSH20 0xFFFFFFFFFFFFFFFFFFFFFFFFFFFFFFFFFFFFFFFF AND SUB PUSH2 0xDF9 JUMPI PUSH1 0x40 MLOAD PUSH32 0x8C379A000000000000000000000000000000000000000000000000000000000 DUP2 MSTORE PUSH1 0x4 ADD PUSH2 0xDF0 SWAP1 PUSH2 0x313F JUMP JUMPDEST PUSH1 0x40 MLOAD DUP1 SWAP2 SUB SWAP1 REVERT JUMPDEST PUSH1 0x3 PUSH1 0x0 DUP4 PUSH20 0xFFFFFFFFFFFFFFFFFFFFFFFFFFFFFFFFFFFFFFFF AND PUSH20 0xFFFFFFFFFFFFFFFFFFFFFFFFFFFFFFFFFFFFFFFF AND DUP2 MSTORE PUSH1 0x20 ADD SWAP1 DUP2 MSTORE PUSH1 0x20 ADD PUSH1 0x0 KECCAK256 SLOAD SWAP1 POP SWAP2 SWAP1 POP JUMP JUMPDEST PUSH2 0xE48 PUSH2 0x13C8 JUMP JUMPDEST PUSH20 0xFFFFFFFFFFFFFFFFFFFFFFFFFFFFFFFFFFFFFFFF AND PUSH2 0xE66 PUSH2 0xEC8 JUMP JUMPDEST PUSH20 0xFFFFFFFFFFFFFFFFFFFFFFFFFFFFFFFFFFFFFFFF AND EQ PUSH2 0xEBC JUMPI PUSH1 0x40 MLOAD PUSH32 0x8C379A000000000000000000000000000000000000000000000000000000000 DUP2 MSTORE PUSH1 0x4 ADD PUSH2 0xEB3 SWAP1 PUSH2 0x2F89 JUMP JUMPDEST PUSH1 0x40 MLOAD DUP1 SWAP2 SUB SWAP1 REVERT JUMPDEST PUSH2 0xEC6 PUSH1 0x0 PUSH2 0x1A89 JUMP JUMPDEST JUMP JUMPDEST PUSH1 0x0 PUSH1 0x6 PUSH1 0x0 SWAP1 SLOAD SWAP1 PUSH2 0x100 EXP SWAP1 DIV PUSH20 0xFFFFFFFFFFFFFFFFFFFFFFFFFFFFFFFFFFFFFFFF AND SWAP1 POP SWAP1 JUMP JUMPDEST PUSH1 0x60 PUSH1 0x1 DUP1 SLOAD PUSH2 0xF01 SWAP1 PUSH2 0x2D56 JUMP JUMPDEST DUP1 PUSH1 0x1F ADD PUSH1 0x20 DUP1 SWAP2 DIV MUL PUSH1 0x20 ADD PUSH1 0x40 MLOAD SWAP1 DUP2 ADD PUSH1 0x40 MSTORE DUP1 SWAP3 SWAP2 SWAP1 DUP2 DUP2 MSTORE PUSH1 0x20 ADD DUP3 DUP1 SLOAD PUSH2 0xF2D SWAP1 PUSH2 0x2D56 JUMP JUMPDEST DUP1 ISZERO PUSH2 0xF7A JUMPI DUP1 PUSH1 0x1F LT PUSH2 0xF4F JUMPI PUSH2 0x100 DUP1 DUP4 SLOAD DIV MUL DUP4 MSTORE SWAP2 PUSH1 0x20 ADD SWAP2 PUSH2 0xF7A JUMP JUMPDEST DUP3 ADD SWAP2 SWAP1 PUSH1 0x0 MSTORE PUSH1 0x20 PUSH1 0x0 KECCAK256 SWAP1 JUMPDEST DUP2 SLOAD DUP2 MSTORE SWAP1 PUSH1 0x1 ADD SWAP1 PUSH1 0x20 ADD DUP1 DUP4 GT PUSH2 0xF5D JUMPI DUP3 SWAP1 SUB PUSH1 0x1F AND DUP3 ADD SWAP2 JUMPDEST POP POP POP POP POP SWAP1 POP SWAP1 JUMP JUMPDEST PUSH2 0xF96 PUSH2 0xF8F PUSH2 0x13C8 JUMP JUMPDEST DUP4 DUP4 PUSH2 0x1B4F JUMP JUMPDEST POP POP JUMP JUMPDEST PUSH1 0x1 ISZERO ISZERO PUSH1 0x8 PUSH1 0x0 PUSH2 0xFAA PUSH2 0x13C8 JUMP JUMPDEST PUSH20 0xFFFFFFFFFFFFFFFFFFFFFFFFFFFFFFFFFFFFFFFF AND PUSH20 0xFFFFFFFFFFFFFFFFFFFFFFFFFFFFFFFFFFFFFFFF AND DUP2 MSTORE PUSH1 0x20 ADD SWAP1 DUP2 MSTORE PUSH1 0x20 ADD PUSH1 0x0 KECCAK256 PUSH1 0x0 SWAP1 SLOAD SWAP1 PUSH2 0x100 EXP SWAP1 DIV PUSH1 0xFF AND ISZERO ISZERO EQ PUSH2 0x1034 JUMPI PUSH1 0x40 MLOAD PUSH32 0x8C379A000000000000000000000000000000000000000000000000000000000 DUP2 MSTORE PUSH1 0x4 ADD PUSH2 0x102B SWAP1 PUSH2 0x31D1 JUMP JUMPDEST PUSH1 0x40 MLOAD DUP1 SWAP2 SUB SWAP1 REVERT JUMPDEST PUSH3 0xF4240 DUP2 PUSH1 0x7 SLOAD PUSH2 0x1046 SWAP2 SWAP1 PUSH2 0x3220 JUMP JUMPDEST GT ISZERO PUSH2 0x1087 JUMPI PUSH1 0x40 MLOAD PUSH32 0x8C379A000000000000000000000000000000000000000000000000000000000 DUP2 MSTORE PUSH1 0x4 ADD PUSH2 0x107E SWAP1 PUSH2 0x32C2 JUMP JUMPDEST PUSH1 0x40 MLOAD DUP1 SWAP2 SUB SWAP1 REVERT JUMPDEST PUSH1 0x0 JUMPDEST DUP2 DUP2 LT ISZERO PUSH2 0x10C5 JUMPI PUSH2 0x10B2 DUP4 PUSH1 0x7 PUSH1 0x0 DUP2 SLOAD DUP1 SWAP3 SWAP2 SWAP1 PUSH2 0x10A9 SWAP1 PUSH2 0x32E2 JUMP JUMPDEST SWAP2 SWAP1 POP SSTORE PUSH2 0x1447 JUMP JUMPDEST DUP1 DUP1 PUSH2 0x10BD SWAP1 PUSH2 0x32E2 JUMP JUMPDEST SWAP2 POP POP PUSH2 0x108A JUMP JUMPDEST POP POP POP JUMP JUMPDEST PUSH2 0x10DB PUSH2 0x10D5 PUSH2 0x13C8 JUMP JUMPDEST DUP4 PUSH2 0x1745 JUMP JUMPDEST PUSH2 0x111A JUMPI PUSH1 0x40 MLOAD PUSH32 0x8C379A000000000000000000000000000000000000000000000000000000000 DUP2 MSTORE PUSH1 0x4 ADD PUSH2 0x1111 SWAP1 PUSH2 0x301B JUMP JUMPDEST PUSH1 0x40 MLOAD DUP1 SWAP2 SUB SWAP1 REVERT JUMPDEST PUSH2 0x1126 DUP5 DUP5 DUP5 DUP5 PUSH2 0x1CBB JUMP JUMPDEST POP POP POP POP JUMP JUMPDEST PUSH1 0x60 PUSH2 0x1137 DUP3 PUSH2 0x1620 JUMP JUMPDEST PUSH2 0x1176 JUMPI PUSH1 0x40 MLOAD PUSH32 0x8C379A000000000000000000000000000000000000000000000000000000000 DUP2 MSTORE PUSH1 0x4 ADD PUSH2 0x116D SWAP1 PUSH2 0x339C JUMP JUMPDEST PUSH1 0x40 MLOAD DUP1 SWAP2 SUB SWAP1 REVERT JUMPDEST PUSH1 0x0 PUSH2 0x1180 PUSH2 0x1D17 JUMP JUMPDEST SWAP1 POP PUSH1 0x0 DUP2 MLOAD GT PUSH2 0x11A0 JUMPI PUSH1 0x40 MLOAD DUP1 PUSH1 0x20 ADD PUSH1 0x40 MSTORE DUP1 PUSH1 0x0 DUP2 MSTORE POP PUSH2 0x11CB JUMP JUMPDEST DUP1 PUSH2 0x11AA DUP5 PUSH2 0x1D2E JUMP JUMPDEST PUSH1 0x40 MLOAD PUSH1 0x20 ADD PUSH2 0x11BB SWAP3 SWAP2 SWAP1 PUSH2 0x33F8 JUMP JUMPDEST PUSH1 0x40 MLOAD PUSH1 0x20 DUP2 DUP4 SUB SUB DUP2 MSTORE SWAP1 PUSH1 0x40 MSTORE JUMPDEST SWAP2 POP POP SWAP2 SWAP1 POP JUMP JUMPDEST PUSH1 0x0 PUSH1 0x5 PUSH1 0x0 DUP5 PUSH20 0xFFFFFFFFFFFFFFFFFFFFFFFFFFFFFFFFFFFFFFFF AND PUSH20 0xFFFFFFFFFFFFFFFFFFFFFFFFFFFFFFFFFFFFFFFF AND DUP2 MSTORE PUSH1 0x20 ADD SWAP1 DUP2 MSTORE PUSH1 0x20 ADD PUSH1 0x0 KECCAK256 PUSH1 0x0 DUP4 PUSH20 0xFFFFFFFFFFFFFFFFFFFFFFFFFFFFFFFFFFFFFFFF AND PUSH20 0xFFFFFFFFFFFFFFFFFFFFFFFFFFFFFFFFFFFFFFFF AND DUP2 MSTORE PUSH1 0x20 ADD SWAP1 DUP2 MSTORE PUSH1 0x20 ADD PUSH1 0x0 KECCAK256 PUSH1 0x0 SWAP1 SLOAD SWAP1 PUSH2 0x100 EXP SWAP1 DIV PUSH1 0xFF AND SWAP1 POP SWAP3 SWAP2 POP POP JUMP JUMPDEST PUSH2 0x126F PUSH2 0x13C8 JUMP JUMPDEST PUSH20 0xFFFFFFFFFFFFFFFFFFFFFFFFFFFFFFFFFFFFFFFF AND PUSH2 0x128D PUSH2 0xEC8 JUMP JUMPDEST PUSH20 0xFFFFFFFFFFFFFFFFFFFFFFFFFFFFFFFFFFFFFFFF AND EQ PUSH2 0x12E3 JUMPI PUSH1 0x40 MLOAD PUSH32 0x8C379A000000000000000000000000000000000000000000000000000000000 DUP2 MSTORE PUSH1 0x4 ADD PUSH2 0x12DA SWAP1 PUSH2 0x2F89 JUMP JUMPDEST PUSH1 0x40 MLOAD DUP1 SWAP2 SUB SWAP1 REVERT JUMPDEST PUSH1 0x0 PUSH20 0xFFFFFFFFFFFFFFFFFFFFFFFFFFFFFFFFFFFFFFFF AND DUP2 PUSH20 0xFFFFFFFFFFFFFFFFFFFFFFFFFFFFFFFFFFFFFFFF AND SUB PUSH2 0x1352 JUMPI PUSH1 0x40 MLOAD PUSH32 0x8C379A000000000000000000000000000000000000000000000000000000000 DUP2 MSTORE PUSH1 0x4 ADD PUSH2 0x1349 SWAP1 PUSH2 0x348E JUMP JUMPDEST PUSH1 0x40 MLOAD DUP1 SWAP2 SUB SWAP1 REVERT JUMPDEST PUSH2 0x135B DUP2 PUSH2 0x1A89 JUMP JUMPDEST POP JUMP JUMPDEST PUSH1 0x0 PUSH32 0x1FFC9A700000000000000000000000000000000000000000000000000000000 PUSH28 0xFFFFFFFFFFFFFFFFFFFFFFFFFFFFFFFFFFFFFFFFFFFFFFFFFFFFFFFF NOT AND DUP3 PUSH28 0xFFFFFFFFFFFFFFFFFFFFFFFFFFFFFFFFFFFFFFFFFFFFFFFFFFFFFFFF NOT AND EQ SWAP1 POP SWAP2 SWAP1 POP JUMP JUMPDEST PUSH1 0x0 CALLER SWAP1 POP SWAP1 JUMP JUMPDEST PUSH1 0x0 PUSH32 0xB6B8501C5EB401A2C658DC6AFBD8FC71E530EAD458BE2AC3F5F322D24727DA99 PUSH1 0x0 SHL DUP5 DUP5 DUP5 PUSH1 0x40 MLOAD PUSH1 0x20 ADD PUSH2 0x140C SWAP5 SWAP4 SWAP3 SWAP2 SWAP1 PUSH2 0x34C7 JUMP JUMPDEST PUSH1 0x40 MLOAD PUSH1 0x20 DUP2 DUP4 SUB SUB DUP2 MSTORE SWAP1 PUSH1 0x40 MSTORE DUP1 MLOAD SWAP1 PUSH1 0x20 ADD KECCAK256 SWAP1 POP SWAP4 SWAP3 POP POP POP JUMP JUMPDEST PUSH1 0x0 PUSH2 0x143F PUSH2 0x1439 DUP5 PUSH2 0x1E8E JUMP JUMPDEST DUP4 PUSH2 0x1EA8 JUMP JUMPDEST SWAP1 POP SWAP3 SWAP2 POP POP JUMP JUMPDEST PUSH1 0x0 PUSH20 0xFFFFFFFFFFFFFFFFFFFFFFFFFFFFFFFFFFFFFFFF AND DUP3 PUSH20 0xFFFFFFFFFFFFFFFFFFFFFFFFFFFFFFFFFFFFFFFF AND SUB PUSH2 0x14B6 JUMPI PUSH1 0x40 MLOAD PUSH32 0x8C379A000000000000000000000000000000000000000000000000000000000 DUP2 MSTORE PUSH1 0x4 ADD PUSH2 0x14AD SWAP1 PUSH2 0x3558 JUMP JUMPDEST PUSH1 0x40 MLOAD DUP1 SWAP2 SUB SWAP1 REVERT JUMPDEST PUSH2 0x14BF DUP2 PUSH2 0x1620 JUMP JUMPDEST ISZERO PUSH2 0x14FF JUMPI PUSH1 0x40 MLOAD PUSH32 0x8C379A000000000000000000000000000000000000000000000000000000000 DUP2 MSTORE PUSH1 0x4 ADD PUSH2 0x14F6 SWAP1 PUSH2 0x35C4 JUMP JUMPDEST PUSH1 0x40 MLOAD DUP1 SWAP2 SUB SWAP1 REVERT JUMPDEST PUSH2 0x150B PUSH1 0x0 DUP4 DUP4 PUSH2 0x1ECF JUMP JUMPDEST PUSH1 0x1 PUSH1 0x3 PUSH1 0x0 DUP5 PUSH20 0xFFFFFFFFFFFFFFFFFFFFFFFFFFFFFFFFFFFFFFFF AND PUSH20 0xFFFFFFFFFFFFFFFFFFFFFFFFFFFFFFFFFFFFFFFF AND DUP2 MSTORE PUSH1 0x20 ADD SWAP1 DUP2 MSTORE PUSH1 0x20 ADD PUSH1 0x0 KECCAK256 PUSH1 0x0 DUP3 DUP3 SLOAD PUSH2 0x155B SWAP2 SWAP1 PUSH2 0x3220 JUMP JUMPDEST SWAP3 POP POP DUP2 SWAP1 SSTORE POP DUP2 PUSH1 0x2 PUSH1 0x0 DUP4 DUP2 MSTORE PUSH1 0x20 ADD SWAP1 DUP2 MSTORE PUSH1 0x20 ADD PUSH1 0x0 KECCAK256 PUSH1 0x0 PUSH2 0x100 EXP DUP2 SLOAD DUP2 PUSH20 0xFFFFFFFFFFFFFFFFFFFFFFFFFFFFFFFFFFFFFFFF MUL NOT AND SWAP1 DUP4 PUSH20 0xFFFFFFFFFFFFFFFFFFFFFFFFFFFFFFFFFFFFFFFF AND MUL OR SWAP1 SSTORE POP DUP1 DUP3 PUSH20 0xFFFFFFFFFFFFFFFFFFFFFFFFFFFFFFFFFFFFFFFF AND PUSH1 0x0 PUSH20 0xFFFFFFFFFFFFFFFFFFFFFFFFFFFFFFFFFFFFFFFF AND PUSH32 0xDDF252AD1BE2C89B69C2B068FC378DAA952BA7F163C4A11628F55A4DF523B3EF PUSH1 0x40 MLOAD PUSH1 0x40 MLOAD DUP1 SWAP2 SUB SWAP1 LOG4 PUSH2 0x161C PUSH1 0x0 DUP4 DUP4 PUSH2 0x1ED4 JUMP JUMPDEST POP POP JUMP JUMPDEST PUSH1 0x0 DUP1 PUSH20 0xFFFFFFFFFFFFFFFFFFFFFFFFFFFFFFFFFFFFFFFF AND PUSH1 0x2 PUSH1 0x0 DUP5 DUP2 MSTORE PUSH1 0x20 ADD SWAP1 DUP2 MSTORE PUSH1 0x20 ADD PUSH1 0x0 KECCAK256 PUSH1 0x0 SWAP1 SLOAD SWAP1 PUSH2 0x100 EXP SWAP1 DIV PUSH20 0xFFFFFFFFFFFFFFFFFFFFFFFFFFFFFFFFFFFFFFFF AND PUSH20 0xFFFFFFFFFFFFFFFFFFFFFFFFFFFFFFFFFFFFFFFF AND EQ ISZERO SWAP1 POP SWAP2 SWAP1 POP JUMP JUMPDEST DUP2 PUSH1 0x4 PUSH1 0x0 DUP4 DUP2 MSTORE PUSH1 0x20 ADD SWAP1 DUP2 MSTORE PUSH1 0x20 ADD PUSH1 0x0 KECCAK256 PUSH1 0x0 PUSH2 0x100 EXP DUP2 SLOAD DUP2 PUSH20 0xFFFFFFFFFFFFFFFFFFFFFFFFFFFFFFFFFFFFFFFF MUL NOT AND SWAP1 DUP4 PUSH20 0xFFFFFFFFFFFFFFFFFFFFFFFFFFFFFFFFFFFFFFFF AND MUL OR SWAP1 SSTORE POP DUP1 DUP3 PUSH20 0xFFFFFFFFFFFFFFFFFFFFFFFFFFFFFFFFFFFFFFFF AND PUSH2 0x16FF DUP4 PUSH2 0xC01 JUMP JUMPDEST PUSH20 0xFFFFFFFFFFFFFFFFFFFFFFFFFFFFFFFFFFFFFFFF AND PUSH32 0x8C5BE1E5EBEC7D5BD14F71427D1E84F3DD0314C0F7B2291E5B200AC8C7C3B925 PUSH1 0x40 MLOAD PUSH1 0x40 MLOAD DUP1 SWAP2 SUB SWAP1 LOG4 POP POP JUMP JUMPDEST PUSH1 0x0 PUSH2 0x1750 DUP3 PUSH2 0x1620 JUMP JUMPDEST PUSH2 0x178F JUMPI PUSH1 0x40 MLOAD PUSH32 0x8C379A000000000000000000000000000000000000000000000000000000000 DUP2 MSTORE PUSH1 0x4 ADD PUSH2 0x1786 SWAP1 PUSH2 0x3656 JUMP JUMPDEST PUSH1 0x40 MLOAD DUP1 SWAP2 SUB SWAP1 REVERT JUMPDEST PUSH1 0x0 PUSH2 0x179A DUP4 PUSH2 0xC01 JUMP JUMPDEST SWAP1 POP DUP1 PUSH20 0xFFFFFFFFFFFFFFFFFFFFFFFFFFFFFFFFFFFFFFFF AND DUP5 PUSH20 0xFFFFFFFFFFFFFFFFFFFFFFFFFFFFFFFFFFFFFFFF AND EQ DUP1 PUSH2 0x1809 JUMPI POP DUP4 PUSH20 0xFFFFFFFFFFFFFFFFFFFFFFFFFFFFFFFFFFFFFFFF AND PUSH2 0x17F1 DUP5 PUSH2 0x79C JUMP JUMPDEST PUSH20 0xFFFFFFFFFFFFFFFFFFFFFFFFFFFFFFFFFFFFFFFF AND EQ JUMPDEST DUP1 PUSH2 0x181A JUMPI POP PUSH2 0x1819 DUP2 DUP6 PUSH2 0x11D3 JUMP JUMPDEST JUMPDEST SWAP2 POP POP SWAP3 SWAP2 POP POP JUMP JUMPDEST DUP3 PUSH20 0xFFFFFFFFFFFFFFFFFFFFFFFFFFFFFFFFFFFFFFFF AND PUSH2 0x1843 DUP3 PUSH2 0xC01 JUMP JUMPDEST PUSH20 0xFFFFFFFFFFFFFFFFFFFFFFFFFFFFFFFFFFFFFFFF AND EQ PUSH2 0x1899 JUMPI PUSH1 0x40 MLOAD PUSH32 0x8C379A000000000000000000000000000000000000000000000000000000000 DUP2 MSTORE PUSH1 0x4 ADD PUSH2 0x1890 SWAP1 PUSH2 0x36E8 JUMP JUMPDEST PUSH1 0x40 MLOAD DUP1 SWAP2 SUB SWAP1 REVERT JUMPDEST PUSH1 0x0 PUSH20 0xFFFFFFFFFFFFFFFFFFFFFFFFFFFFFFFFFFFFFFFF AND DUP3 PUSH20 0xFFFFFFFFFFFFFFFFFFFFFFFFFFFFFFFFFFFFFFFF AND SUB PUSH2 0x1908 JUMPI PUSH1 0x40 MLOAD PUSH32 0x8C379A000000000000000000000000000000000000000000000000000000000 DUP2 MSTORE PUSH1 0x4 ADD PUSH2 0x18FF SWAP1 PUSH2 0x377A JUMP JUMPDEST PUSH1 0x40 MLOAD DUP1 SWAP2 SUB SWAP1 REVERT JUMPDEST PUSH2 0x1913 DUP4 DUP4 DUP4 PUSH2 0x1ECF JUMP JUMPDEST PUSH2 0x191E PUSH1 0x0 DUP3 PUSH2 0x168C JUMP JUMPDEST PUSH1 0x1 PUSH1 0x3 PUSH1 0x0 DUP6 PUSH20 0xFFFFFFFFFFFFFFFFFFFFFFFFFFFFFFFFFFFFFFFF AND PUSH20 0xFFFFFFFFFFFFFFFFFFFFFFFFFFFFFFFFFFFFFFFF AND DUP2 MSTORE PUSH1 0x20 ADD SWAP1 DUP2 MSTORE PUSH1 0x20 ADD PUSH1 0x0 KECCAK256 PUSH1 0x0 DUP3 DUP3 SLOAD PUSH2 0x196E SWAP2 SWAP1 PUSH2 0x379A JUMP JUMPDEST SWAP3 POP POP DUP2 SWAP1 SSTORE POP PUSH1 0x1 PUSH1 0x3 PUSH1 0x0 DUP5 PUSH20 0xFFFFFFFFFFFFFFFFFFFFFFFFFFFFFFFFFFFFFFFF AND PUSH20 0xFFFFFFFFFFFFFFFFFFFFFFFFFFFFFFFFFFFFFFFF AND DUP2 MSTORE PUSH1 0x20 ADD SWAP1 DUP2 MSTORE PUSH1 0x20 ADD PUSH1 0x0 KECCAK256 PUSH1 0x0 DUP3 DUP3 SLOAD PUSH2 0x19C5 SWAP2 SWAP1 PUSH2 0x3220 JUMP JUMPDEST SWAP3 POP POP DUP2 SWAP1 SSTORE POP DUP2 PUSH1 0x2 PUSH1 0x0 DUP4 DUP2 MSTORE PUSH1 0x20 ADD SWAP1 DUP2 MSTORE PUSH1 0x20 ADD PUSH1 0x0 KECCAK256 PUSH1 0x0 PUSH2 0x100 EXP DUP2 SLOAD DUP2 PUSH20 0xFFFFFFFFFFFFFFFFFFFFFFFFFFFFFFFFFFFFFFFF MUL NOT AND SWAP1 DUP4 PUSH20 0xFFFFFFFFFFFFFFFFFFFFFFFFFFFFFFFFFFFFFFFF AND MUL OR SWAP1 SSTORE POP DUP1 DUP3 PUSH20 0xFFFFFFFFFFFFFFFFFFFFFFFFFFFFFFFFFFFFFFFF AND DUP5 PUSH20 0xFFFFFFFFFFFFFFFFFFFFFFFFFFFFFFFFFFFFFFFF AND PUSH32 0xDDF252AD1BE2C89B69C2B068FC378DAA952BA7F163C4A11628F55A4DF523B3EF PUSH1 0x40 MLOAD PUSH1 0x40 MLOAD DUP1 SWAP2 SUB SWAP1 LOG4 PUSH2 0x1A84 DUP4 DUP4 DUP4 PUSH2 0x1ED4 JUMP JUMPDEST POP POP POP JUMP JUMPDEST PUSH1 0x0 PUSH1 0x6 PUSH1 0x0 SWAP1 SLOAD SWAP1 PUSH2 0x100 EXP SWAP1 DIV PUSH20 0xFFFFFFFFFFFFFFFFFFFFFFFFFFFFFFFFFFFFFFFF AND SWAP1 POP DUP2 PUSH1 0x6 PUSH1 0x0 PUSH2 0x100 EXP DUP2 SLOAD DUP2 PUSH20 0xFFFFFFFFFFFFFFFFFFFFFFFFFFFFFFFFFFFFFFFF MUL NOT AND SWAP1 DUP4 PUSH20 0xFFFFFFFFFFFFFFFFFFFFFFFFFFFFFFFFFFFFFFFF AND MUL OR SWAP1 SSTORE POP DUP2 PUSH20 0xFFFFFFFFFFFFFFFFFFFFFFFFFFFFFFFFFFFFFFFF AND DUP2 PUSH20 0xFFFFFFFFFFFFFFFFFFFFFFFFFFFFFFFFFFFFFFFF AND PUSH32 0x8BE0079C531659141344CD1FD0A4F28419497F9722A3DAAFE3B4186F6B6457E0 PUSH1 0x40 MLOAD PUSH1 0x40 MLOAD DUP1 SWAP2 SUB SWAP1 LOG3 POP POP JUMP JUMPDEST DUP2 PUSH20 0xFFFFFFFFFFFFFFFFFFFFFFFFFFFFFFFFFFFFFFFF AND DUP4 PUSH20 0xFFFFFFFFFFFFFFFFFFFFFFFFFFFFFFFFFFFFFFFF AND SUB PUSH2 0x1BBD JUMPI PUSH1 0x40 MLOAD PUSH32 0x8C379A000000000000000000000000000000000000000000000000000000000 DUP2 MSTORE PUSH1 0x4 ADD PUSH2 0x1BB4 SWAP1 PUSH2 0x381A JUMP JUMPDEST PUSH1 0x40 MLOAD DUP1 SWAP2 SUB SWAP1 REVERT JUMPDEST DUP1 PUSH1 0x5 PUSH1 0x0 DUP6 PUSH20 0xFFFFFFFFFFFFFFFFFFFFFFFFFFFFFFFFFFFFFFFF AND PUSH20 0xFFFFFFFFFFFFFFFFFFFFFFFFFFFFFFFFFFFFFFFF AND DUP2 MSTORE PUSH1 0x20 ADD SWAP1 DUP2 MSTORE PUSH1 0x20 ADD PUSH1 0x0 KECCAK256 PUSH1 0x0 DUP5 PUSH20 0xFFFFFFFFFFFFFFFFFFFFFFFFFFFFFFFFFFFFFFFF AND PUSH20 0xFFFFFFFFFFFFFFFFFFFFFFFFFFFFFFFFFFFFFFFF AND DUP2 MSTORE PUSH1 0x20 ADD SWAP1 DUP2 MSTORE PUSH1 0x20 ADD PUSH1 0x0 KECCAK256 PUSH1 0x0 PUSH2 0x100 EXP DUP2 SLOAD DUP2 PUSH1 0xFF MUL NOT AND SWAP1 DUP4 ISZERO ISZERO MUL OR SWAP1 SSTORE POP DUP2 PUSH20 0xFFFFFFFFFFFFFFFFFFFFFFFFFFFFFFFFFFFFFFFF AND DUP4 PUSH20 0xFFFFFFFFFFFFFFFFFFFFFFFFFFFFFFFFFFFFFFFF AND PUSH32 0x17307EAB39AB6107E8899845AD3D59BD9653F200F220920489CA2B5937696C31 DUP4 PUSH1 0x40 MLOAD PUSH2 0x1CAE SWAP2 SWAP1 PUSH2 0x269A JUMP JUMPDEST PUSH1 0x40 MLOAD DUP1 SWAP2 SUB SWAP1 LOG3 POP POP POP JUMP JUMPDEST PUSH2 0x1CC6 DUP5 DUP5 DUP5 PUSH2 0x1823 JUMP JUMPDEST PUSH2 0x1CD2 DUP5 DUP5 DUP5 DUP5 PUSH2 0x1ED9 JUMP JUMPDEST PUSH2 0x1D11 JUMPI PUSH1 0x40 MLOAD PUSH32 0x8C379A000000000000000000000000000000000000000000000000000000000 DUP2 MSTORE PUSH1 0x4 ADD PUSH2 0x1D08 SWAP1 PUSH2 0x38AC JUMP JUMPDEST PUSH1 0x40 MLOAD DUP1 SWAP2 SUB SWAP1 REVERT JUMPDEST POP POP POP POP JUMP JUMPDEST PUSH1 0x60 PUSH1 0x40 MLOAD DUP1 PUSH1 0x20 ADD PUSH1 0x40 MSTORE DUP1 PUSH1 0x0 DUP2 MSTORE POP SWAP1 POP SWAP1 JUMP JUMPDEST PUSH1 0x60 PUSH1 0x0 DUP3 SUB PUSH2 0x1D75 JUMPI PUSH1 0x40 MLOAD DUP1 PUSH1 0x40 ADD PUSH1 0x40 MSTORE DUP1 PUSH1 0x1 DUP2 MSTORE PUSH1 0x20 ADD PUSH32 0x3000000000000000000000000000000000000000000000000000000000000000 DUP2 MSTORE POP SWAP1 POP PUSH2 0x1E89 JUMP JUMPDEST PUSH1 0x0 DUP3 SWAP1 POP PUSH1 0x0 JUMPDEST PUSH1 0x0 DUP3 EQ PUSH2 0x1DA7 JUMPI DUP1 DUP1 PUSH2 0x1D90 SWAP1 PUSH2 0x32E2 JUMP JUMPDEST SWAP2 POP POP PUSH1 0xA DUP3 PUSH2 0x1DA0 SWAP2 SWAP1 PUSH2 0x38FB JUMP JUMPDEST SWAP2 POP PUSH2 0x1D7D JUMP JUMPDEST PUSH1 0x0 DUP2 PUSH8 0xFFFFFFFFFFFFFFFF DUP2 GT ISZERO PUSH2 0x1DC3 JUMPI PUSH2 0x1DC2 PUSH2 0x2706 JUMP JUMPDEST JUMPDEST PUSH1 0x40 MLOAD SWAP1 DUP1 DUP3 MSTORE DUP1 PUSH1 0x1F ADD PUSH1 0x1F NOT AND PUSH1 0x20 ADD DUP3 ADD PUSH1 0x40 MSTORE DUP1 ISZERO PUSH2 0x1DF5 JUMPI DUP2 PUSH1 0x20 ADD PUSH1 0x1 DUP3 MUL DUP1 CALLDATASIZE DUP4 CALLDATACOPY DUP1 DUP3 ADD SWAP2 POP POP SWAP1 POP JUMPDEST POP SWAP1 POP JUMPDEST PUSH1 0x0 DUP6 EQ PUSH2 0x1E82 JUMPI PUSH1 0x1 DUP3 PUSH2 0x1E0E SWAP2 SWAP1 PUSH2 0x379A JUMP JUMPDEST SWAP2 POP PUSH1 0xA DUP6 PUSH2 0x1E1D SWAP2 SWAP1 PUSH2 0x392C JUMP JUMPDEST PUSH1 0x30 PUSH2 0x1E29 SWAP2 SWAP1 PUSH2 0x3220 JUMP JUMPDEST PUSH1 0xF8 SHL DUP2 DUP4 DUP2 MLOAD DUP2 LT PUSH2 0x1E3F JUMPI PUSH2 0x1E3E PUSH2 0x395D JUMP JUMPDEST JUMPDEST PUSH1 0x20 ADD ADD SWAP1 PUSH31 0xFFFFFFFFFFFFFFFFFFFFFFFFFFFFFFFFFFFFFFFFFFFFFFFFFFFFFFFFFFFFFF NOT AND SWAP1 DUP2 PUSH1 0x0 BYTE SWAP1 MSTORE8 POP PUSH1 0xA DUP6 PUSH2 0x1E7B SWAP2 SWAP1 PUSH2 0x38FB JUMP JUMPDEST SWAP5 POP PUSH2 0x1DF9 JUMP JUMPDEST DUP1 SWAP4 POP POP POP POP JUMPDEST SWAP2 SWAP1 POP JUMP JUMPDEST PUSH1 0x0 PUSH2 0x1EA1 PUSH2 0x1E9B PUSH2 0x2060 JUMP JUMPDEST DUP4 PUSH2 0x219B JUMP JUMPDEST SWAP1 POP SWAP2 SWAP1 POP JUMP JUMPDEST PUSH1 0x0 DUP1 PUSH1 0x0 PUSH2 0x1EB7 DUP6 DUP6 PUSH2 0x21CE JUMP JUMPDEST SWAP2 POP SWAP2 POP PUSH2 0x1EC4 DUP2 PUSH2 0x224F JUMP JUMPDEST DUP2 SWAP3 POP POP POP SWAP3 SWAP2 POP POP JUMP JUMPDEST POP POP POP JUMP JUMPDEST POP POP POP JUMP JUMPDEST PUSH1 0x0 PUSH2 0x1EFA DUP5 PUSH20 0xFFFFFFFFFFFFFFFFFFFFFFFFFFFFFFFFFFFFFFFF AND PUSH2 0x241B JUMP JUMPDEST ISZERO PUSH2 0x2053 JUMPI DUP4 PUSH20 0xFFFFFFFFFFFFFFFFFFFFFFFFFFFFFFFFFFFFFFFF AND PUSH4 0x150B7A02 PUSH2 0x1F23 PUSH2 0x13C8 JUMP JUMPDEST DUP8 DUP7 DUP7 PUSH1 0x40 MLOAD DUP6 PUSH4 0xFFFFFFFF AND PUSH1 0xE0 SHL DUP2 MSTORE PUSH1 0x4 ADD PUSH2 0x1F45 SWAP5 SWAP4 SWAP3 SWAP2 SWAP1 PUSH2 0x39E1 JUMP JUMPDEST PUSH1 0x20 PUSH1 0x40 MLOAD DUP1 DUP4 SUB DUP2 PUSH1 0x0 DUP8 GAS CALL SWAP3 POP POP POP DUP1 ISZERO PUSH2 0x1F81 JUMPI POP PUSH1 0x40 MLOAD RETURNDATASIZE PUSH1 0x1F NOT PUSH1 0x1F DUP3 ADD AND DUP3 ADD DUP1 PUSH1 0x40 MSTORE POP DUP2 ADD SWAP1 PUSH2 0x1F7E SWAP2 SWAP1 PUSH2 0x3A42 JUMP JUMPDEST PUSH1 0x1 JUMPDEST PUSH2 0x2003 JUMPI RETURNDATASIZE DUP1 PUSH1 0x0 DUP2 EQ PUSH2 0x1FB1 JUMPI PUSH1 0x40 MLOAD SWAP2 POP PUSH1 0x1F NOT PUSH1 0x3F RETURNDATASIZE ADD AND DUP3 ADD PUSH1 0x40 MSTORE RETURNDATASIZE DUP3 MSTORE RETURNDATASIZE PUSH1 0x0 PUSH1 0x20 DUP5 ADD RETURNDATACOPY PUSH2 0x1FB6 JUMP JUMPDEST PUSH1 0x60 SWAP2 POP JUMPDEST POP PUSH1 0x0 DUP2 MLOAD SUB PUSH2 0x1FFB JUMPI PUSH1 0x40 MLOAD PUSH32 0x8C379A000000000000000000000000000000000000000000000000000000000 DUP2 MSTORE PUSH1 0x4 ADD PUSH2 0x1FF2 SWAP1 PUSH2 0x38AC JUMP JUMPDEST PUSH1 0x40 MLOAD DUP1 SWAP2 SUB SWAP1 REVERT JUMPDEST DUP1 MLOAD DUP2 PUSH1 0x20 ADD REVERT JUMPDEST PUSH4 0x150B7A02 PUSH1 0xE0 SHL PUSH28 0xFFFFFFFFFFFFFFFFFFFFFFFFFFFFFFFFFFFFFFFFFFFFFFFFFFFFFFFF NOT AND DUP2 PUSH28 0xFFFFFFFFFFFFFFFFFFFFFFFFFFFFFFFFFFFFFFFFFFFFFFFFFFFFFFFF NOT AND EQ SWAP2 POP POP PUSH2 0x2058 JUMP JUMPDEST PUSH1 0x1 SWAP1 POP JUMPDEST SWAP5 SWAP4 POP POP POP POP JUMP JUMPDEST PUSH1 0x0 PUSH32 0x0 PUSH20 0xFFFFFFFFFFFFFFFFFFFFFFFFFFFFFFFFFFFFFFFF AND ADDRESS PUSH20 0xFFFFFFFFFFFFFFFFFFFFFFFFFFFFFFFFFFFFFFFF AND EQ DUP1 ISZERO PUSH2 0x20DC JUMPI POP PUSH32 0x0 CHAINID EQ JUMPDEST ISZERO PUSH2 0x2109 JUMPI PUSH32 0x0 SWAP1 POP PUSH2 0x2198 JUMP JUMPDEST PUSH2 0x2195 PUSH32 0x0 PUSH32 0x0 PUSH32 0x0 PUSH32 0x0 PUSH2 0x243E JUMP JUMPDEST SWAP1 POP JUMPDEST SWAP1 JUMP JUMPDEST PUSH1 0x0 DUP3 DUP3 PUSH1 0x40 MLOAD PUSH1 0x20 ADD PUSH2 0x21B0 SWAP3 SWAP2 SWAP1 PUSH2 0x3ADC JUMP JUMPDEST PUSH1 0x40 MLOAD PUSH1 0x20 DUP2 DUP4 SUB SUB DUP2 MSTORE SWAP1 PUSH1 0x40 MSTORE DUP1 MLOAD SWAP1 PUSH1 0x20 ADD KECCAK256 SWAP1 POP SWAP3 SWAP2 POP POP JUMP JUMPDEST PUSH1 0x0 DUP1 PUSH1 0x41 DUP4 MLOAD SUB PUSH2 0x220F JUMPI PUSH1 0x0 DUP1 PUSH1 0x0 PUSH1 0x20 DUP7 ADD MLOAD SWAP3 POP PUSH1 0x40 DUP7 ADD MLOAD SWAP2 POP PUSH1 0x60 DUP7 ADD MLOAD PUSH1 0x0 BYTE SWAP1 POP PUSH2 0x2203 DUP8 DUP3 DUP6 DUP6 PUSH2 0x247B JUMP JUMPDEST SWAP5 POP SWAP5 POP POP POP POP PUSH2 0x2248 JUMP JUMPDEST PUSH1 0x40 DUP4 MLOAD SUB PUSH2 0x223F JUMPI PUSH1 0x0 DUP1 PUSH1 0x20 DUP6 ADD MLOAD SWAP2 POP PUSH1 0x40 DUP6 ADD MLOAD SWAP1 POP PUSH2 0x2234 DUP7 DUP4 DUP4 PUSH2 0x2587 JUMP JUMPDEST SWAP4 POP SWAP4 POP POP POP PUSH2 0x2248 JUMP JUMPDEST PUSH1 0x0 PUSH1 0x2 SWAP2 POP SWAP2 POP JUMPDEST SWAP3 POP SWAP3 SWAP1 POP JUMP JUMPDEST PUSH1 0x0 PUSH1 0x4 DUP2 GT ISZERO PUSH2 0x2263 JUMPI PUSH2 0x2262 PUSH2 0x3B13 JUMP JUMPDEST JUMPDEST DUP2 PUSH1 0x4 DUP2 GT ISZERO PUSH2 0x2276 JUMPI PUSH2 0x2275 PUSH2 0x3B13 JUMP JUMPDEST JUMPDEST SUB ISZERO PUSH2 0x2418 JUMPI PUSH1 0x1 PUSH1 0x4 DUP2 GT ISZERO PUSH2 0x2290 JUMPI PUSH2 0x228F PUSH2 0x3B13 JUMP JUMPDEST JUMPDEST DUP2 PUSH1 0x4 DUP2 GT ISZERO PUSH2 0x22A3 JUMPI PUSH2 0x22A2 PUSH2 0x3B13 JUMP JUMPDEST JUMPDEST SUB PUSH2 0x22E3 JUMPI PUSH1 0x40 MLOAD PUSH32 0x8C379A000000000000000000000000000000000000000000000000000000000 DUP2 MSTORE PUSH1 0x4 ADD PUSH2 0x22DA SWAP1 PUSH2 0x3B8E JUMP JUMPDEST PUSH1 0x40 MLOAD DUP1 SWAP2 SUB SWAP1 REVERT JUMPDEST PUSH1 0x2 PUSH1 0x4 DUP2 GT ISZERO PUSH2 0x22F7 JUMPI PUSH2 0x22F6 PUSH2 0x3B13 JUMP JUMPDEST JUMPDEST DUP2 PUSH1 0x4 DUP2 GT ISZERO PUSH2 0x230A JUMPI PUSH2 0x2309 PUSH2 0x3B13 JUMP JUMPDEST JUMPDEST SUB PUSH2 0x234A JUMPI PUSH1 0x40 MLOAD PUSH32 0x8C379A000000000000000000000000000000000000000000000000000000000 DUP2 MSTORE PUSH1 0x4 ADD PUSH2 0x2341 SWAP1 PUSH2 0x3BFA JUMP JUMPDEST PUSH1 0x40 MLOAD DUP1 SWAP2 SUB SWAP1 REVERT JUMPDEST PUSH1 0x3 PUSH1 0x4 DUP2 GT ISZERO PUSH2 0x235E JUMPI PUSH2 0x235D PUSH2 0x3B13 JUMP JUMPDEST JUMPDEST DUP2 PUSH1 0x4 DUP2 GT ISZERO PUSH2 0x2371 JUMPI PUSH2 0x2370 PUSH2 0x3B13 JUMP JUMPDEST JUMPDEST SUB PUSH2 0x23B1 JUMPI PUSH1 0x40 MLOAD PUSH32 0x8C379A000000000000000000000000000000000000000000000000000000000 DUP2 MSTORE PUSH1 0x4 ADD PUSH2 0x23A8 SWAP1 PUSH2 0x3C8C JUMP JUMPDEST PUSH1 0x40 MLOAD DUP1 SWAP2 SUB SWAP1 REVERT JUMPDEST PUSH1 0x4 DUP1 DUP2 GT ISZERO PUSH2 0x23C4 JUMPI PUSH2 0x23C3 PUSH2 0x3B13 JUMP JUMPDEST JUMPDEST DUP2 PUSH1 0x4 DUP2 GT ISZERO PUSH2 0x23D7 JUMPI PUSH2 0x23D6 PUSH2 0x3B13 JUMP JUMPDEST JUMPDEST SUB PUSH2 0x2417 JUMPI PUSH1 0x40 MLOAD PUSH32 0x8C379A000000000000000000000000000000000000000000000000000000000 DUP2 MSTORE PUSH1 0x4 ADD PUSH2 0x240E SWAP1 PUSH2 0x3D1E JUMP JUMPDEST PUSH1 0x40 MLOAD DUP1 SWAP2 SUB SWAP1 REVERT JUMPDEST JUMPDEST POP JUMP JUMPDEST PUSH1 0x0 DUP1 DUP3 PUSH20 0xFFFFFFFFFFFFFFFFFFFFFFFFFFFFFFFFFFFFFFFF AND EXTCODESIZE GT SWAP1 POP SWAP2 SWAP1 POP JUMP JUMPDEST PUSH1 0x0 DUP5 DUP5 DUP5 CHAINID ADDRESS DUP7 PUSH1 0x40 MLOAD PUSH1 0x20 ADD PUSH2 0x245B SWAP7 SWAP6 SWAP5 SWAP4 SWAP3 SWAP2 SWAP1 PUSH2 0x3D3E JUMP JUMPDEST PUSH1 0x40 MLOAD PUSH1 0x20 DUP2 DUP4 SUB SUB DUP2 MSTORE SWAP1 PUSH1 0x40 MSTORE DUP1 MLOAD SWAP1 PUSH1 0x20 ADD KECCAK256 SWAP1 POP SWAP5 SWAP4 POP POP POP POP JUMP JUMPDEST PUSH1 0x0 DUP1 PUSH32 0x7FFFFFFFFFFFFFFFFFFFFFFFFFFFFFFF5D576E7357A4501DDFE92F46681B20A0 DUP4 PUSH1 0x0 SHR GT ISZERO PUSH2 0x24B6 JUMPI PUSH1 0x0 PUSH1 0x3 SWAP2 POP SWAP2 POP PUSH2 0x257E JUMP JUMPDEST PUSH1 0x1B DUP6 PUSH1 0xFF AND EQ ISZERO DUP1 ISZERO PUSH2 0x24CE JUMPI POP PUSH1 0x1C DUP6 PUSH1 0xFF AND EQ ISZERO JUMPDEST ISZERO PUSH2 0x24E0 JUMPI PUSH1 0x0 PUSH1 0x4 SWAP2 POP SWAP2 POP PUSH2 0x257E JUMP JUMPDEST PUSH1 0x0 PUSH1 0x1 DUP8 DUP8 DUP8 DUP8 PUSH1 0x40 MLOAD PUSH1 0x0 DUP2 MSTORE PUSH1 0x20 ADD PUSH1 0x40 MSTORE PUSH1 0x40 MLOAD PUSH2 0x2505 SWAP5 SWAP4 SWAP3 SWAP2 SWAP1 PUSH2 0x3DBB JUMP JUMPDEST PUSH1 0x20 PUSH1 0x40 MLOAD PUSH1 0x20 DUP2 SUB SWAP1 DUP1 DUP5 SUB SWAP1 DUP6 GAS STATICCALL ISZERO DUP1 ISZERO PUSH2 0x2527 JUMPI RETURNDATASIZE PUSH1 0x0 DUP1 RETURNDATACOPY RETURNDATASIZE PUSH1 0x0 REVERT JUMPDEST POP POP POP PUSH1 0x20 PUSH1 0x40 MLOAD SUB MLOAD SWAP1 POP PUSH1 0x0 PUSH20 0xFFFFFFFFFFFFFFFFFFFFFFFFFFFFFFFFFFFFFFFF AND DUP2 PUSH20 0xFFFFFFFFFFFFFFFFFFFFFFFFFFFFFFFFFFFFFFFF AND SUB PUSH2 0x2575 JUMPI PUSH1 0x0 PUSH1 0x1 SWAP3 POP SWAP3 POP POP PUSH2 0x257E JUMP JUMPDEST DUP1 PUSH1 0x0 SWAP3 POP SWAP3 POP POP JUMPDEST SWAP5 POP SWAP5 SWAP3 POP POP POP JUMP JUMPDEST PUSH1 0x0 DUP1 PUSH1 0x0 PUSH32 0x7FFFFFFFFFFFFFFFFFFFFFFFFFFFFFFFFFFFFFFFFFFFFFFFFFFFFFFFFFFFFFFF PUSH1 0x0 SHL DUP5 AND SWAP1 POP PUSH1 0x0 PUSH1 0x1B PUSH1 0xFF DUP7 PUSH1 0x0 SHR SWAP1 SHR PUSH2 0x25CA SWAP2 SWAP1 PUSH2 0x3220 JUMP JUMPDEST SWAP1 POP PUSH2 0x25D8 DUP8 DUP3 DUP9 DUP6 PUSH2 0x247B JUMP JUMPDEST SWAP4 POP SWAP4 POP POP POP SWAP4 POP SWAP4 SWAP2 POP POP JUMP JUMPDEST PUSH1 0x0 PUSH1 0x40 MLOAD SWAP1 POP SWAP1 JUMP JUMPDEST PUSH1 0x0 DUP1 REVERT JUMPDEST PUSH1 0x0 DUP1 REVERT JUMPDEST PUSH1 0x0 PUSH32 0xFFFFFFFF00000000000000000000000000000000000000000000000000000000 DUP3 AND SWAP1 POP SWAP2 SWAP1 POP JUMP JUMPDEST PUSH2 0x262F DUP2 PUSH2 0x25FA JUMP JUMPDEST DUP2 EQ PUSH2 0x263A JUMPI PUSH1 0x0 DUP1 REVERT JUMPDEST POP JUMP JUMPDEST PUSH1 0x0 DUP2 CALLDATALOAD SWAP1 POP PUSH2 0x264C DUP2 PUSH2 0x2626 JUMP JUMPDEST SWAP3 SWAP2 POP POP JUMP JUMPDEST PUSH1 0x0 PUSH1 0x20 DUP3 DUP5 SUB SLT ISZERO PUSH2 0x2668 JUMPI PUSH2 0x2667 PUSH2 0x25F0 JUMP JUMPDEST JUMPDEST PUSH1 0x0 PUSH2 0x2676 DUP5 DUP3 DUP6 ADD PUSH2 0x263D JUMP JUMPDEST SWAP2 POP POP SWAP3 SWAP2 POP POP JUMP JUMPDEST PUSH1 0x0 DUP2 ISZERO ISZERO SWAP1 POP SWAP2 SWAP1 POP JUMP JUMPDEST PUSH2 0x2694 DUP2 PUSH2 0x267F JUMP JUMPDEST DUP3 MSTORE POP POP JUMP JUMPDEST PUSH1 0x0 PUSH1 0x20 DUP3 ADD SWAP1 POP PUSH2 0x26AF PUSH1 0x0 DUP4 ADD DUP5 PUSH2 0x268B JUMP JUMPDEST SWAP3 SWAP2 POP POP JUMP JUMPDEST PUSH1 0x0 DUP2 SWAP1 POP SWAP2 SWAP1 POP JUMP JUMPDEST PUSH2 0x26C8 DUP2 PUSH2 0x26B5 JUMP JUMPDEST DUP2 EQ PUSH2 0x26D3 JUMPI PUSH1 0x0 DUP1 REVERT JUMPDEST POP JUMP JUMPDEST PUSH1 0x0 DUP2 CALLDATALOAD SWAP1 POP PUSH2 0x26E5 DUP2 PUSH2 0x26BF JUMP JUMPDEST SWAP3 SWAP2 POP POP JUMP JUMPDEST PUSH1 0x0 DUP1 REVERT JUMPDEST PUSH1 0x0 DUP1 REVERT JUMPDEST PUSH1 0x0 PUSH1 0x1F NOT PUSH1 0x1F DUP4 ADD AND SWAP1 POP SWAP2 SWAP1 POP JUMP JUMPDEST PUSH32 0x4E487B7100000000000000000000000000000000000000000000000000000000 PUSH1 0x0 MSTORE PUSH1 0x41 PUSH1 0x4 MSTORE PUSH1 0x24 PUSH1 0x0 REVERT JUMPDEST PUSH2 0x273E DUP3 PUSH2 0x26F5 JUMP JUMPDEST DUP2 ADD DUP2 DUP2 LT PUSH8 0xFFFFFFFFFFFFFFFF DUP3 GT OR ISZERO PUSH2 0x275D JUMPI PUSH2 0x275C PUSH2 0x2706 JUMP JUMPDEST JUMPDEST DUP1 PUSH1 0x40 MSTORE POP POP POP JUMP JUMPDEST PUSH1 0x0 PUSH2 0x2770 PUSH2 0x25E6 JUMP JUMPDEST SWAP1 POP PUSH2 0x277C DUP3 DUP3 PUSH2 0x2735 JUMP JUMPDEST SWAP2 SWAP1 POP JUMP JUMPDEST PUSH1 0x0 PUSH8 0xFFFFFFFFFFFFFFFF DUP3 GT ISZERO PUSH2 0x279C JUMPI PUSH2 0x279B PUSH2 0x2706 JUMP JUMPDEST JUMPDEST PUSH2 0x27A5 DUP3 PUSH2 0x26F5 JUMP JUMPDEST SWAP1 POP PUSH1 0x20 DUP2 ADD SWAP1 POP SWAP2 SWAP1 POP JUMP JUMPDEST DUP3 DUP2 DUP4 CALLDATACOPY PUSH1 0x0 DUP4 DUP4 ADD MSTORE POP POP POP JUMP JUMPDEST PUSH1 0x0 PUSH2 0x27D4 PUSH2 0x27CF DUP5 PUSH2 0x2781 JUMP JUMPDEST PUSH2 0x2766 JUMP JUMPDEST SWAP1 POP DUP3 DUP2 MSTORE PUSH1 0x20 DUP2 ADD DUP5 DUP5 DUP5 ADD GT ISZERO PUSH2 0x27F0 JUMPI PUSH2 0x27EF PUSH2 0x26F0 JUMP JUMPDEST JUMPDEST PUSH2 0x27FB DUP5 DUP3 DUP6 PUSH2 0x27B2 JUMP JUMPDEST POP SWAP4 SWAP3 POP POP POP JUMP JUMPDEST PUSH1 0x0 DUP3 PUSH1 0x1F DUP4 ADD SLT PUSH2 0x2818 JUMPI PUSH2 0x2817 PUSH2 0x26EB JUMP JUMPDEST JUMPDEST DUP2 CALLDATALOAD PUSH2 0x2828 DUP5 DUP3 PUSH1 0x20 DUP7 ADD PUSH2 0x27C1 JUMP JUMPDEST SWAP2 POP POP SWAP3 SWAP2 POP POP JUMP JUMPDEST PUSH1 0x0 DUP1 PUSH1 0x0 PUSH1 0x60 DUP5 DUP7 SUB SLT ISZERO PUSH2 0x284A JUMPI PUSH2 0x2849 PUSH2 0x25F0 JUMP JUMPDEST JUMPDEST PUSH1 0x0 PUSH2 0x2858 DUP7 DUP3 DUP8 ADD PUSH2 0x26D6 JUMP JUMPDEST SWAP4 POP POP PUSH1 0x20 PUSH2 0x2869 DUP7 DUP3 DUP8 ADD PUSH2 0x26D6 JUMP JUMPDEST SWAP3 POP POP PUSH1 0x40 DUP5 ADD CALLDATALOAD PUSH8 0xFFFFFFFFFFFFFFFF DUP2 GT ISZERO PUSH2 0x288A JUMPI PUSH2 0x2889 PUSH2 0x25F5 JUMP JUMPDEST JUMPDEST PUSH2 0x2896 DUP7 DUP3 DUP8 ADD PUSH2 0x2803 JUMP JUMPDEST SWAP2 POP POP SWAP3 POP SWAP3 POP SWAP3 JUMP JUMPDEST PUSH1 0x0 DUP2 MLOAD SWAP1 POP SWAP2 SWAP1 POP JUMP JUMPDEST PUSH1 0x0 DUP3 DUP3 MSTORE PUSH1 0x20 DUP3 ADD SWAP1 POP SWAP3 SWAP2 POP POP JUMP JUMPDEST PUSH1 0x0 JUMPDEST DUP4 DUP2 LT ISZERO PUSH2 0x28DA JUMPI DUP1 DUP3 ADD MLOAD DUP2 DUP5 ADD MSTORE PUSH1 0x20 DUP2 ADD SWAP1 POP PUSH2 0x28BF JUMP JUMPDEST DUP4 DUP2 GT ISZERO PUSH2 0x28E9 JUMPI PUSH1 0x0 DUP5 DUP5 ADD MSTORE JUMPDEST POP POP POP POP JUMP JUMPDEST PUSH1 0x0 PUSH2 0x28FA DUP3 PUSH2 0x28A0 JUMP JUMPDEST PUSH2 0x2904 DUP2 DUP6 PUSH2 0x28AB JUMP JUMPDEST SWAP4 POP PUSH2 0x2914 DUP2 DUP6 PUSH1 0x20 DUP7 ADD PUSH2 0x28BC JUMP JUMPDEST PUSH2 0x291D DUP2 PUSH2 0x26F5 JUMP JUMPDEST DUP5 ADD SWAP2 POP POP SWAP3 SWAP2 POP POP JUMP JUMPDEST PUSH1 0x0 PUSH1 0x20 DUP3 ADD SWAP1 POP DUP2 DUP2 SUB PUSH1 0x0 DUP4 ADD MSTORE PUSH2 0x2942 DUP2 DUP5 PUSH2 0x28EF JUMP JUMPDEST SWAP1 POP SWAP3 SWAP2 POP POP JUMP JUMPDEST PUSH1 0x0 PUSH1 0x20 DUP3 DUP5 SUB SLT ISZERO PUSH2 0x2960 JUMPI PUSH2 0x295F PUSH2 0x25F0 JUMP JUMPDEST JUMPDEST PUSH1 0x0 PUSH2 0x296E DUP5 DUP3 DUP6 ADD PUSH2 0x26D6 JUMP JUMPDEST SWAP2 POP POP SWAP3 SWAP2 POP POP JUMP JUMPDEST PUSH1 0x0 PUSH20 0xFFFFFFFFFFFFFFFFFFFFFFFFFFFFFFFFFFFFFFFF DUP3 AND SWAP1 POP SWAP2 SWAP1 POP JUMP JUMPDEST PUSH1 0x0 PUSH2 0x29A2 DUP3 PUSH2 0x2977 JUMP JUMPDEST SWAP1 POP SWAP2 SWAP1 POP JUMP JUMPDEST PUSH2 0x29B2 DUP2 PUSH2 0x2997 JUMP JUMPDEST DUP3 MSTORE POP POP JUMP JUMPDEST PUSH1 0x0 PUSH1 0x20 DUP3 ADD SWAP1 POP PUSH2 0x29CD PUSH1 0x0 DUP4 ADD DUP5 PUSH2 0x29A9 JUMP JUMPDEST SWAP3 SWAP2 POP POP JUMP JUMPDEST PUSH2 0x29DC DUP2 PUSH2 0x2997 JUMP JUMPDEST DUP2 EQ PUSH2 0x29E7 JUMPI PUSH1 0x0 DUP1 REVERT JUMPDEST POP JUMP JUMPDEST PUSH1 0x0 DUP2 CALLDATALOAD SWAP1 POP PUSH2 0x29F9 DUP2 PUSH2 0x29D3 JUMP JUMPDEST SWAP3 SWAP2 POP POP JUMP JUMPDEST PUSH1 0x0 DUP1 PUSH1 0x40 DUP4 DUP6 SUB SLT ISZERO PUSH2 0x2A16 JUMPI PUSH2 0x2A15 PUSH2 0x25F0 JUMP JUMPDEST JUMPDEST PUSH1 0x0 PUSH2 0x2A24 DUP6 DUP3 DUP7 ADD PUSH2 0x29EA JUMP JUMPDEST SWAP3 POP POP PUSH1 0x20 PUSH2 0x2A35 DUP6 DUP3 DUP7 ADD PUSH2 0x26D6 JUMP JUMPDEST SWAP2 POP POP SWAP3 POP SWAP3 SWAP1 POP JUMP JUMPDEST PUSH1 0x0 PUSH1 0x20 DUP3 DUP5 SUB SLT ISZERO PUSH2 0x2A55 JUMPI PUSH2 0x2A54 PUSH2 0x25F0 JUMP JUMPDEST JUMPDEST PUSH1 0x0 PUSH2 0x2A63 DUP5 DUP3 DUP6 ADD PUSH2 0x29EA JUMP JUMPDEST SWAP2 POP POP SWAP3 SWAP2 POP POP JUMP JUMPDEST PUSH1 0x0 DUP1 PUSH1 0x0 PUSH1 0x60 DUP5 DUP7 SUB SLT ISZERO PUSH2 0x2A85 JUMPI PUSH2 0x2A84 PUSH2 0x25F0 JUMP JUMPDEST JUMPDEST PUSH1 0x0 PUSH2 0x2A93 DUP7 DUP3 DUP8 ADD PUSH2 0x29EA JUMP JUMPDEST SWAP4 POP POP PUSH1 0x20 PUSH2 0x2AA4 DUP7 DUP3 DUP8 ADD PUSH2 0x29EA JUMP JUMPDEST SWAP3 POP POP PUSH1 0x40 PUSH2 0x2AB5 DUP7 DUP3 DUP8 ADD PUSH2 0x26D6 JUMP JUMPDEST SWAP2 POP POP SWAP3 POP SWAP3 POP SWAP3 JUMP JUMPDEST PUSH2 0x2AC8 DUP2 PUSH2 0x26B5 JUMP JUMPDEST DUP3 MSTORE POP POP JUMP JUMPDEST PUSH1 0x0 PUSH1 0x20 DUP3 ADD SWAP1 POP PUSH2 0x2AE3 PUSH1 0x0 DUP4 ADD DUP5 PUSH2 0x2ABF JUMP JUMPDEST SWAP3 SWAP2 POP POP JUMP JUMPDEST PUSH2 0x2AF2 DUP2 PUSH2 0x267F JUMP JUMPDEST DUP2 EQ PUSH2 0x2AFD JUMPI PUSH1 0x0 DUP1 REVERT JUMPDEST POP JUMP JUMPDEST PUSH1 0x0 DUP2 CALLDATALOAD SWAP1 POP PUSH2 0x2B0F DUP2 PUSH2 0x2AE9 JUMP JUMPDEST SWAP3 SWAP2 POP POP JUMP JUMPDEST PUSH1 0x0 DUP1 PUSH1 0x40 DUP4 DUP6 SUB SLT ISZERO PUSH2 0x2B2C JUMPI PUSH2 0x2B2B PUSH2 0x25F0 JUMP JUMPDEST JUMPDEST PUSH1 0x0 PUSH2 0x2B3A DUP6 DUP3 DUP7 ADD PUSH2 0x29EA JUMP JUMPDEST SWAP3 POP POP PUSH1 0x20 PUSH2 0x2B4B DUP6 DUP3 DUP7 ADD PUSH2 0x2B00 JUMP JUMPDEST SWAP2 POP POP SWAP3 POP SWAP3 SWAP1 POP JUMP JUMPDEST PUSH1 0x0 DUP1 PUSH1 0x0 DUP1 PUSH1 0x80 DUP6 DUP8 SUB SLT ISZERO PUSH2 0x2B6F JUMPI PUSH2 0x2B6E PUSH2 0x25F0 JUMP JUMPDEST JUMPDEST PUSH1 0x0 PUSH2 0x2B7D DUP8 DUP3 DUP9 ADD PUSH2 0x29EA JUMP JUMPDEST SWAP5 POP POP PUSH1 0x20 PUSH2 0x2B8E DUP8 DUP3 DUP9 ADD PUSH2 0x29EA JUMP JUMPDEST SWAP4 POP POP PUSH1 0x40 PUSH2 0x2B9F DUP8 DUP3 DUP9 ADD PUSH2 0x26D6 JUMP JUMPDEST SWAP3 POP POP PUSH1 0x60 DUP6 ADD CALLDATALOAD PUSH8 0xFFFFFFFFFFFFFFFF DUP2 GT ISZERO PUSH2 0x2BC0 JUMPI PUSH2 0x2BBF PUSH2 0x25F5 JUMP JUMPDEST JUMPDEST PUSH2 0x2BCC DUP8 DUP3 DUP9 ADD PUSH2 0x2803 JUMP JUMPDEST SWAP2 POP POP SWAP3 SWAP6 SWAP2 SWAP5 POP SWAP3 POP JUMP JUMPDEST PUSH1 0x0 DUP1 PUSH1 0x40 DUP4 DUP6 SUB SLT ISZERO PUSH2 0x2BEF JUMPI PUSH2 0x2BEE PUSH2 0x25F0 JUMP JUMPDEST JUMPDEST PUSH1 0x0 PUSH2 0x2BFD DUP6 DUP3 DUP7 ADD PUSH2 0x29EA JUMP JUMPDEST SWAP3 POP POP PUSH1 0x20 PUSH2 0x2C0E DUP6 DUP3 DUP7 ADD PUSH2 0x29EA JUMP JUMPDEST SWAP2 POP POP SWAP3 POP SWAP3 SWAP1 POP JUMP JUMPDEST PUSH32 0x696E76616C696420746F6B656E49640000000000000000000000000000000000 PUSH1 0x0 DUP3 ADD MSTORE POP JUMP JUMPDEST PUSH1 0x0 PUSH2 0x2C4E PUSH1 0xF DUP4 PUSH2 0x28AB JUMP JUMPDEST SWAP2 POP PUSH2 0x2C59 DUP3 PUSH2 0x2C18 JUMP JUMPDEST PUSH1 0x20 DUP3 ADD SWAP1 POP SWAP2 SWAP1 POP JUMP JUMPDEST PUSH1 0x0 PUSH1 0x20 DUP3 ADD SWAP1 POP DUP2 DUP2 SUB PUSH1 0x0 DUP4 ADD MSTORE PUSH2 0x2C7D DUP2 PUSH2 0x2C41 JUMP JUMPDEST SWAP1 POP SWAP2 SWAP1 POP JUMP JUMPDEST PUSH32 0x696E76616C6964207369676E6174757265000000000000000000000000000000 PUSH1 0x0 DUP3 ADD MSTORE POP JUMP JUMPDEST PUSH1 0x0 PUSH2 0x2CBA PUSH1 0x11 DUP4 PUSH2 0x28AB JUMP JUMPDEST SWAP2 POP PUSH2 0x2CC5 DUP3 PUSH2 0x2C84 JUMP JUMPDEST PUSH1 0x20 DUP3 ADD SWAP1 POP SWAP2 SWAP1 POP JUMP JUMPDEST PUSH1 0x0 PUSH1 0x20 DUP3 ADD SWAP1 POP DUP2 DUP2 SUB PUSH1 0x0 DUP4 ADD MSTORE PUSH2 0x2CE9 DUP2 PUSH2 0x2CAD JUMP JUMPDEST SWAP1 POP SWAP2 SWAP1 POP JUMP JUMPDEST PUSH1 0x0 PUSH1 0x60 DUP3 ADD SWAP1 POP PUSH2 0x2D05 PUSH1 0x0 DUP4 ADD DUP7 PUSH2 0x29A9 JUMP JUMPDEST PUSH2 0x2D12 PUSH1 0x20 DUP4 ADD DUP6 PUSH2 0x2ABF JUMP JUMPDEST PUSH2 0x2D1F PUSH1 0x40 DUP4 ADD DUP5 PUSH2 0x2ABF JUMP JUMPDEST SWAP5 SWAP4 POP POP POP POP JUMP JUMPDEST PUSH32 0x4E487B7100000000000000000000000000000000000000000000000000000000 PUSH1 0x0 MSTORE PUSH1 0x22 PUSH1 0x4 MSTORE PUSH1 0x24 PUSH1 0x0 REVERT JUMPDEST PUSH1 0x0 PUSH1 0x2 DUP3 DIV SWAP1 POP PUSH1 0x1 DUP3 AND DUP1 PUSH2 0x2D6E JUMPI PUSH1 0x7F DUP3 AND SWAP2 POP JUMPDEST PUSH1 0x20 DUP3 LT DUP2 SUB PUSH2 0x2D81 JUMPI PUSH2 0x2D80 PUSH2 0x2D27 JUMP JUMPDEST JUMPDEST POP SWAP2 SWAP1 POP JUMP JUMPDEST PUSH32 0x4552433732313A20617070726F76656420717565727920666F72206E6F6E6578 PUSH1 0x0 DUP3 ADD MSTORE PUSH32 0x697374656E7420746F6B656E0000000000000000000000000000000000000000 PUSH1 0x20 DUP3 ADD MSTORE POP JUMP JUMPDEST PUSH1 0x0 PUSH2 0x2DE3 PUSH1 0x2C DUP4 PUSH2 0x28AB JUMP JUMPDEST SWAP2 POP PUSH2 0x2DEE DUP3 PUSH2 0x2D87 JUMP JUMPDEST PUSH1 0x40 DUP3 ADD SWAP1 POP SWAP2 SWAP1 POP JUMP JUMPDEST PUSH1 0x0 PUSH1 0x20 DUP3 ADD SWAP1 POP DUP2 DUP2 SUB PUSH1 0x0 DUP4 ADD MSTORE PUSH2 0x2E12 DUP2 PUSH2 0x2DD6 JUMP JUMPDEST SWAP1 POP SWAP2 SWAP1 POP JUMP JUMPDEST PUSH32 0x4552433732313A20617070726F76616C20746F2063757272656E74206F776E65 PUSH1 0x0 DUP3 ADD MSTORE PUSH32 0x7200000000000000000000000000000000000000000000000000000000000000 PUSH1 0x20 DUP3 ADD MSTORE POP JUMP JUMPDEST PUSH1 0x0 PUSH2 0x2E75 PUSH1 0x21 DUP4 PUSH2 0x28AB JUMP JUMPDEST SWAP2 POP PUSH2 0x2E80 DUP3 PUSH2 0x2E19 JUMP JUMPDEST PUSH1 0x40 DUP3 ADD SWAP1 POP SWAP2 SWAP1 POP JUMP JUMPDEST PUSH1 0x0 PUSH1 0x20 DUP3 ADD SWAP1 POP DUP2 DUP2 SUB PUSH1 0x0 DUP4 ADD MSTORE PUSH2 0x2EA4 DUP2 PUSH2 0x2E68 JUMP JUMPDEST SWAP1 POP SWAP2 SWAP1 POP JUMP JUMPDEST PUSH32 0x4552433732313A20617070726F76652063616C6C6572206973206E6F74206F77 PUSH1 0x0 DUP3 ADD MSTORE PUSH32 0x6E6572206E6F7220617070726F76656420666F7220616C6C0000000000000000 PUSH1 0x20 DUP3 ADD MSTORE POP JUMP JUMPDEST PUSH1 0x0 PUSH2 0x2F07 PUSH1 0x38 DUP4 PUSH2 0x28AB JUMP JUMPDEST SWAP2 POP PUSH2 0x2F12 DUP3 PUSH2 0x2EAB JUMP JUMPDEST PUSH1 0x40 DUP3 ADD SWAP1 POP SWAP2 SWAP1 POP JUMP JUMPDEST PUSH1 0x0 PUSH1 0x20 DUP3 ADD SWAP1 POP DUP2 DUP2 SUB PUSH1 0x0 DUP4 ADD MSTORE PUSH2 0x2F36 DUP2 PUSH2 0x2EFA JUMP JUMPDEST SWAP1 POP SWAP2 SWAP1 POP JUMP JUMPDEST PUSH32 0x4F776E61626C653A2063616C6C6572206973206E6F7420746865206F776E6572 PUSH1 0x0 DUP3 ADD MSTORE POP JUMP JUMPDEST PUSH1 0x0 PUSH2 0x2F73 PUSH1 0x20 DUP4 PUSH2 0x28AB JUMP JUMPDEST SWAP2 POP PUSH2 0x2F7E DUP3 PUSH2 0x2F3D JUMP JUMPDEST PUSH1 0x20 DUP3 ADD SWAP1 POP SWAP2 SWAP1 POP JUMP JUMPDEST PUSH1 0x0 PUSH1 0x20 DUP3 ADD SWAP1 POP DUP2 DUP2 SUB PUSH1 0x0 DUP4 ADD MSTORE PUSH2 0x2FA2 DUP2 PUSH2 0x2F66 JUMP JUMPDEST SWAP1 POP SWAP2 SWAP1 POP JUMP JUMPDEST PUSH32 0x4552433732313A207472616E736665722063616C6C6572206973206E6F74206F PUSH1 0x0 DUP3 ADD MSTORE PUSH32 0x776E6572206E6F7220617070726F766564000000000000000000000000000000 PUSH1 0x20 DUP3 ADD MSTORE POP JUMP JUMPDEST PUSH1 0x0 PUSH2 0x3005 PUSH1 0x31 DUP4 PUSH2 0x28AB JUMP JUMPDEST SWAP2 POP PUSH2 0x3010 DUP3 PUSH2 0x2FA9 JUMP JUMPDEST PUSH1 0x40 DUP3 ADD SWAP1 POP SWAP2 SWAP1 POP JUMP JUMPDEST PUSH1 0x0 PUSH1 0x20 DUP3 ADD SWAP1 POP DUP2 DUP2 SUB PUSH1 0x0 DUP4 ADD MSTORE PUSH2 0x3034 DUP2 PUSH2 0x2FF8 JUMP JUMPDEST SWAP1 POP SWAP2 SWAP1 POP JUMP JUMPDEST PUSH32 0x4552433732313A206F776E657220717565727920666F72206E6F6E6578697374 PUSH1 0x0 DUP3 ADD MSTORE PUSH32 0x656E7420746F6B656E0000000000000000000000000000000000000000000000 PUSH1 0x20 DUP3 ADD MSTORE POP JUMP JUMPDEST PUSH1 0x0 PUSH2 0x3097 PUSH1 0x29 DUP4 PUSH2 0x28AB JUMP JUMPDEST SWAP2 POP PUSH2 0x30A2 DUP3 PUSH2 0x303B JUMP JUMPDEST PUSH1 0x40 DUP3 ADD SWAP1 POP SWAP2 SWAP1 POP JUMP JUMPDEST PUSH1 0x0 PUSH1 0x20 DUP3 ADD SWAP1 POP DUP2 DUP2 SUB PUSH1 0x0 DUP4 ADD MSTORE PUSH2 0x30C6 DUP2 PUSH2 0x308A JUMP JUMPDEST SWAP1 POP SWAP2 SWAP1 POP JUMP JUMPDEST PUSH32 0x4552433732313A2062616C616E636520717565727920666F7220746865207A65 PUSH1 0x0 DUP3 ADD MSTORE PUSH32 0x726F206164647265737300000000000000000000000000000000000000000000 PUSH1 0x20 DUP3 ADD MSTORE POP JUMP JUMPDEST PUSH1 0x0 PUSH2 0x3129 PUSH1 0x2A DUP4 PUSH2 0x28AB JUMP JUMPDEST SWAP2 POP PUSH2 0x3134 DUP3 PUSH2 0x30CD JUMP JUMPDEST PUSH1 0x40 DUP3 ADD SWAP1 POP SWAP2 SWAP1 POP JUMP JUMPDEST PUSH1 0x0 PUSH1 0x20 DUP3 ADD SWAP1 POP DUP2 DUP2 SUB PUSH1 0x0 DUP4 ADD MSTORE PUSH2 0x3158 DUP2 PUSH2 0x311C JUMP JUMPDEST SWAP1 POP SWAP2 SWAP1 POP JUMP JUMPDEST PUSH32 0x7468652063616C6C657220646F6573206E6F742068617665207065726D697373 PUSH1 0x0 DUP3 ADD MSTORE PUSH32 0x696F6E7300000000000000000000000000000000000000000000000000000000 PUSH1 0x20 DUP3 ADD MSTORE POP JUMP JUMPDEST PUSH1 0x0 PUSH2 0x31BB PUSH1 0x24 DUP4 PUSH2 0x28AB JUMP JUMPDEST SWAP2 POP PUSH2 0x31C6 DUP3 PUSH2 0x315F JUMP JUMPDEST PUSH1 0x40 DUP3 ADD SWAP1 POP SWAP2 SWAP1 POP JUMP JUMPDEST PUSH1 0x0 PUSH1 0x20 DUP3 ADD SWAP1 POP DUP2 DUP2 SUB PUSH1 0x0 DUP4 ADD MSTORE PUSH2 0x31EA DUP2 PUSH2 0x31AE JUMP JUMPDEST SWAP1 POP SWAP2 SWAP1 POP JUMP JUMPDEST PUSH32 0x4E487B7100000000000000000000000000000000000000000000000000000000 PUSH1 0x0 MSTORE PUSH1 0x11 PUSH1 0x4 MSTORE PUSH1 0x24 PUSH1 0x0 REVERT JUMPDEST PUSH1 0x0 PUSH2 0x322B DUP3 PUSH2 0x26B5 JUMP JUMPDEST SWAP2 POP PUSH2 0x3236 DUP4 PUSH2 0x26B5 JUMP JUMPDEST SWAP3 POP DUP3 PUSH32 0xFFFFFFFFFFFFFFFFFFFFFFFFFFFFFFFFFFFFFFFFFFFFFFFFFFFFFFFFFFFFFFFF SUB DUP3 GT ISZERO PUSH2 0x326B JUMPI PUSH2 0x326A PUSH2 0x31F1 JUMP JUMPDEST JUMPDEST DUP3 DUP3 ADD SWAP1 POP SWAP3 SWAP2 POP POP JUMP JUMPDEST PUSH32 0x45786365656473207265736572766564207175616E7469747900000000000000 PUSH1 0x0 DUP3 ADD MSTORE POP JUMP JUMPDEST PUSH1 0x0 PUSH2 0x32AC PUSH1 0x19 DUP4 PUSH2 0x28AB JUMP JUMPDEST SWAP2 POP PUSH2 0x32B7 DUP3 PUSH2 0x3276 JUMP JUMPDEST PUSH1 0x20 DUP3 ADD SWAP1 POP SWAP2 SWAP1 POP JUMP JUMPDEST PUSH1 0x0 PUSH1 0x20 DUP3 ADD SWAP1 POP DUP2 DUP2 SUB PUSH1 0x0 DUP4 ADD MSTORE PUSH2 0x32DB DUP2 PUSH2 0x329F JUMP JUMPDEST SWAP1 POP SWAP2 SWAP1 POP JUMP JUMPDEST PUSH1 0x0 PUSH2 0x32ED DUP3 PUSH2 0x26B5 JUMP JUMPDEST SWAP2 POP PUSH32 0xFFFFFFFFFFFFFFFFFFFFFFFFFFFFFFFFFFFFFFFFFFFFFFFFFFFFFFFFFFFFFFFF DUP3 SUB PUSH2 0x331F JUMPI PUSH2 0x331E PUSH2 0x31F1 JUMP JUMPDEST JUMPDEST PUSH1 0x1 DUP3 ADD SWAP1 POP SWAP2 SWAP1 POP JUMP JUMPDEST PUSH32 0x4552433732314D657461646174613A2055524920717565727920666F72206E6F PUSH1 0x0 DUP3 ADD MSTORE PUSH32 0x6E6578697374656E7420746F6B656E0000000000000000000000000000000000 PUSH1 0x20 DUP3 ADD MSTORE POP JUMP JUMPDEST PUSH1 0x0 PUSH2 0x3386 PUSH1 0x2F DUP4 PUSH2 0x28AB JUMP JUMPDEST SWAP2 POP PUSH2 0x3391 DUP3 PUSH2 0x332A JUMP JUMPDEST PUSH1 0x40 DUP3 ADD SWAP1 POP SWAP2 SWAP1 POP JUMP JUMPDEST PUSH1 0x0 PUSH1 0x20 DUP3 ADD SWAP1 POP DUP2 DUP2 SUB PUSH1 0x0 DUP4 ADD MSTORE PUSH2 0x33B5 DUP2 PUSH2 0x3379 JUMP JUMPDEST SWAP1 POP SWAP2 SWAP1 POP JUMP JUMPDEST PUSH1 0x0 DUP2 SWAP1 POP SWAP3 SWAP2 POP POP JUMP JUMPDEST PUSH1 0x0 PUSH2 0x33D2 DUP3 PUSH2 0x28A0 JUMP JUMPDEST PUSH2 0x33DC DUP2 DUP6 PUSH2 0x33BC JUMP JUMPDEST SWAP4 POP PUSH2 0x33EC DUP2 DUP6 PUSH1 0x20 DUP7 ADD PUSH2 0x28BC JUMP JUMPDEST DUP1 DUP5 ADD SWAP2 POP POP SWAP3 SWAP2 POP POP JUMP JUMPDEST PUSH1 0x0 PUSH2 0x3404 DUP3 DUP6 PUSH2 0x33C7 JUMP JUMPDEST SWAP2 POP PUSH2 0x3410 DUP3 DUP5 PUSH2 0x33C7 JUMP JUMPDEST SWAP2 POP DUP2 SWAP1 POP SWAP4 SWAP3 POP POP POP JUMP JUMPDEST PUSH32 0x4F776E61626C653A206E6577206F776E657220697320746865207A65726F2061 PUSH1 0x0 DUP3 ADD MSTORE PUSH32 0x6464726573730000000000000000000000000000000000000000000000000000 PUSH1 0x20 DUP3 ADD MSTORE POP JUMP JUMPDEST PUSH1 0x0 PUSH2 0x3478 PUSH1 0x26 DUP4 PUSH2 0x28AB JUMP JUMPDEST SWAP2 POP PUSH2 0x3483 DUP3 PUSH2 0x341C JUMP JUMPDEST PUSH1 0x40 DUP3 ADD SWAP1 POP SWAP2 SWAP1 POP JUMP JUMPDEST PUSH1 0x0 PUSH1 0x20 DUP3 ADD SWAP1 POP DUP2 DUP2 SUB PUSH1 0x0 DUP4 ADD MSTORE PUSH2 0x34A7 DUP2 PUSH2 0x346B JUMP JUMPDEST SWAP1 POP SWAP2 SWAP1 POP JUMP JUMPDEST PUSH1 0x0 DUP2 SWAP1 POP SWAP2 SWAP1 POP JUMP JUMPDEST PUSH2 0x34C1 DUP2 PUSH2 0x34AE JUMP JUMPDEST DUP3 MSTORE POP POP JUMP JUMPDEST PUSH1 0x0 PUSH1 0x80 DUP3 ADD SWAP1 POP PUSH2 0x34DC PUSH1 0x0 DUP4 ADD DUP8 PUSH2 0x34B8 JUMP JUMPDEST PUSH2 0x34E9 PUSH1 0x20 DUP4 ADD DUP7 PUSH2 0x29A9 JUMP JUMPDEST PUSH2 0x34F6 PUSH1 0x40 DUP4 ADD DUP6 PUSH2 0x2ABF JUMP JUMPDEST PUSH2 0x3503 PUSH1 0x60 DUP4 ADD DUP5 PUSH2 0x2ABF JUMP JUMPDEST SWAP6 SWAP5 POP POP POP POP POP JUMP JUMPDEST PUSH32 0x4552433732313A206D696E7420746F20746865207A65726F2061646472657373 PUSH1 0x0 DUP3 ADD MSTORE POP JUMP JUMPDEST PUSH1 0x0 PUSH2 0x3542 PUSH1 0x20 DUP4 PUSH2 0x28AB JUMP JUMPDEST SWAP2 POP PUSH2 0x354D DUP3 PUSH2 0x350C JUMP JUMPDEST PUSH1 0x20 DUP3 ADD SWAP1 POP SWAP2 SWAP1 POP JUMP JUMPDEST PUSH1 0x0 PUSH1 0x20 DUP3 ADD SWAP1 POP DUP2 DUP2 SUB PUSH1 0x0 DUP4 ADD MSTORE PUSH2 0x3571 DUP2 PUSH2 0x3535 JUMP JUMPDEST SWAP1 POP SWAP2 SWAP1 POP JUMP JUMPDEST PUSH32 0x4552433732313A20746F6B656E20616C7265616479206D696E74656400000000 PUSH1 0x0 DUP3 ADD MSTORE POP JUMP JUMPDEST PUSH1 0x0 PUSH2 0x35AE PUSH1 0x1C DUP4 PUSH2 0x28AB JUMP JUMPDEST SWAP2 POP PUSH2 0x35B9 DUP3 PUSH2 0x3578 JUMP JUMPDEST PUSH1 0x20 DUP3 ADD SWAP1 POP SWAP2 SWAP1 POP JUMP JUMPDEST PUSH1 0x0 PUSH1 0x20 DUP3 ADD SWAP1 POP DUP2 DUP2 SUB PUSH1 0x0 DUP4 ADD MSTORE PUSH2 0x35DD DUP2 PUSH2 0x35A1 JUMP JUMPDEST SWAP1 POP SWAP2 SWAP1 POP JUMP JUMPDEST PUSH32 0x4552433732313A206F70657261746F7220717565727920666F72206E6F6E6578 PUSH1 0x0 DUP3 ADD MSTORE PUSH32 0x697374656E7420746F6B656E0000000000000000000000000000000000000000 PUSH1 0x20 DUP3 ADD MSTORE POP JUMP JUMPDEST PUSH1 0x0 PUSH2 0x3640 PUSH1 0x2C DUP4 PUSH2 0x28AB JUMP JUMPDEST SWAP2 POP PUSH2 0x364B DUP3 PUSH2 0x35E4 JUMP JUMPDEST PUSH1 0x40 DUP3 ADD SWAP1 POP SWAP2 SWAP1 POP JUMP JUMPDEST PUSH1 0x0 PUSH1 0x20 DUP3 ADD SWAP1 POP DUP2 DUP2 SUB PUSH1 0x0 DUP4 ADD MSTORE PUSH2 0x366F DUP2 PUSH2 0x3633 JUMP JUMPDEST SWAP1 POP SWAP2 SWAP1 POP JUMP JUMPDEST PUSH32 0x4552433732313A207472616E736665722066726F6D20696E636F727265637420 PUSH1 0x0 DUP3 ADD MSTORE PUSH32 0x6F776E6572000000000000000000000000000000000000000000000000000000 PUSH1 0x20 DUP3 ADD MSTORE POP JUMP JUMPDEST PUSH1 0x0 PUSH2 0x36D2 PUSH1 0x25 DUP4 PUSH2 0x28AB JUMP JUMPDEST SWAP2 POP PUSH2 0x36DD DUP3 PUSH2 0x3676 JUMP JUMPDEST PUSH1 0x40 DUP3 ADD SWAP1 POP SWAP2 SWAP1 POP JUMP JUMPDEST PUSH1 0x0 PUSH1 0x20 DUP3 ADD SWAP1 POP DUP2 DUP2 SUB PUSH1 0x0 DUP4 ADD MSTORE PUSH2 0x3701 DUP2 PUSH2 0x36C5 JUMP JUMPDEST SWAP1 POP SWAP2 SWAP1 POP JUMP JUMPDEST PUSH32 0x4552433732313A207472616E7366657220746F20746865207A65726F20616464 PUSH1 0x0 DUP3 ADD MSTORE PUSH32 0x7265737300000000000000000000000000000000000000000000000000000000 PUSH1 0x20 DUP3 ADD MSTORE POP JUMP JUMPDEST PUSH1 0x0 PUSH2 0x3764 PUSH1 0x24 DUP4 PUSH2 0x28AB JUMP JUMPDEST SWAP2 POP PUSH2 0x376F DUP3 PUSH2 0x3708 JUMP JUMPDEST PUSH1 0x40 DUP3 ADD SWAP1 POP SWAP2 SWAP1 POP JUMP JUMPDEST PUSH1 0x0 PUSH1 0x20 DUP3 ADD SWAP1 POP DUP2 DUP2 SUB PUSH1 0x0 DUP4 ADD MSTORE PUSH2 0x3793 DUP2 PUSH2 0x3757 JUMP JUMPDEST SWAP1 POP SWAP2 SWAP1 POP JUMP JUMPDEST PUSH1 0x0 PUSH2 0x37A5 DUP3 PUSH2 0x26B5 JUMP JUMPDEST SWAP2 POP PUSH2 0x37B0 DUP4 PUSH2 0x26B5 JUMP JUMPDEST SWAP3 POP DUP3 DUP3 LT ISZERO PUSH2 0x37C3 JUMPI PUSH2 0x37C2 PUSH2 0x31F1 JUMP JUMPDEST JUMPDEST DUP3 DUP3 SUB SWAP1 POP SWAP3 SWAP2 POP POP JUMP JUMPDEST PUSH32 0x4552433732313A20617070726F766520746F2063616C6C657200000000000000 PUSH1 0x0 DUP3 ADD MSTORE POP JUMP JUMPDEST PUSH1 0x0 PUSH2 0x3804 PUSH1 0x19 DUP4 PUSH2 0x28AB JUMP JUMPDEST SWAP2 POP PUSH2 0x380F DUP3 PUSH2 0x37CE JUMP JUMPDEST PUSH1 0x20 DUP3 ADD SWAP1 POP SWAP2 SWAP1 POP JUMP JUMPDEST PUSH1 0x0 PUSH1 0x20 DUP3 ADD SWAP1 POP DUP2 DUP2 SUB PUSH1 0x0 DUP4 ADD MSTORE PUSH2 0x3833 DUP2 PUSH2 0x37F7 JUMP JUMPDEST SWAP1 POP SWAP2 SWAP1 POP JUMP JUMPDEST PUSH32 0x4552433732313A207472616E7366657220746F206E6F6E204552433732315265 PUSH1 0x0 DUP3 ADD MSTORE PUSH32 0x63656976657220696D706C656D656E7465720000000000000000000000000000 PUSH1 0x20 DUP3 ADD MSTORE POP JUMP JUMPDEST PUSH1 0x0 PUSH2 0x3896 PUSH1 0x32 DUP4 PUSH2 0x28AB JUMP JUMPDEST SWAP2 POP PUSH2 0x38A1 DUP3 PUSH2 0x383A JUMP JUMPDEST PUSH1 0x40 DUP3 ADD SWAP1 POP SWAP2 SWAP1 POP JUMP JUMPDEST PUSH1 0x0 PUSH1 0x20 DUP3 ADD SWAP1 POP DUP2 DUP2 SUB PUSH1 0x0 DUP4 ADD MSTORE PUSH2 0x38C5 DUP2 PUSH2 0x3889 JUMP JUMPDEST SWAP1 POP SWAP2 SWAP1 POP JUMP JUMPDEST PUSH32 0x4E487B7100000000000000000000000000000000000000000000000000000000 PUSH1 0x0 MSTORE PUSH1 0x12 PUSH1 0x4 MSTORE PUSH1 0x24 PUSH1 0x0 REVERT JUMPDEST PUSH1 0x0 PUSH2 0x3906 DUP3 PUSH2 0x26B5 JUMP JUMPDEST SWAP2 POP PUSH2 0x3911 DUP4 PUSH2 0x26B5 JUMP JUMPDEST SWAP3 POP DUP3 PUSH2 0x3921 JUMPI PUSH2 0x3920 PUSH2 0x38CC JUMP JUMPDEST JUMPDEST DUP3 DUP3 DIV SWAP1 POP SWAP3 SWAP2 POP POP JUMP JUMPDEST PUSH1 0x0 PUSH2 0x3937 DUP3 PUSH2 0x26B5 JUMP JUMPDEST SWAP2 POP PUSH2 0x3942 DUP4 PUSH2 0x26B5 JUMP JUMPDEST SWAP3 POP DUP3 PUSH2 0x3952 JUMPI PUSH2 0x3951 PUSH2 0x38CC JUMP JUMPDEST JUMPDEST DUP3 DUP3 MOD SWAP1 POP SWAP3 SWAP2 POP POP JUMP JUMPDEST PUSH32 0x4E487B7100000000000000000000000000000000000000000000000000000000 PUSH1 0x0 MSTORE PUSH1 0x32 PUSH1 0x4 MSTORE PUSH1 0x24 PUSH1 0x0 REVERT JUMPDEST PUSH1 0x0 DUP2 MLOAD SWAP1 POP SWAP2 SWAP1 POP JUMP JUMPDEST PUSH1 0x0 DUP3 DUP3 MSTORE PUSH1 0x20 DUP3 ADD SWAP1 POP SWAP3 SWAP2 POP POP JUMP JUMPDEST PUSH1 0x0 PUSH2 0x39B3 DUP3 PUSH2 0x398C JUMP JUMPDEST PUSH2 0x39BD DUP2 DUP6 PUSH2 0x3997 JUMP JUMPDEST SWAP4 POP PUSH2 0x39CD DUP2 DUP6 PUSH1 0x20 DUP7 ADD PUSH2 0x28BC JUMP JUMPDEST PUSH2 0x39D6 DUP2 PUSH2 0x26F5 JUMP JUMPDEST DUP5 ADD SWAP2 POP POP SWAP3 SWAP2 POP POP JUMP JUMPDEST PUSH1 0x0 PUSH1 0x80 DUP3 ADD SWAP1 POP PUSH2 0x39F6 PUSH1 0x0 DUP4 ADD DUP8 PUSH2 0x29A9 JUMP JUMPDEST PUSH2 0x3A03 PUSH1 0x20 DUP4 ADD DUP7 PUSH2 0x29A9 JUMP JUMPDEST PUSH2 0x3A10 PUSH1 0x40 DUP4 ADD DUP6 PUSH2 0x2ABF JUMP JUMPDEST DUP2 DUP2 SUB PUSH1 0x60 DUP4 ADD MSTORE PUSH2 0x3A22 DUP2 DUP5 PUSH2 0x39A8 JUMP JUMPDEST SWAP1 POP SWAP6 SWAP5 POP POP POP POP POP JUMP JUMPDEST PUSH1 0x0 DUP2 MLOAD SWAP1 POP PUSH2 0x3A3C DUP2 PUSH2 0x2626 JUMP JUMPDEST SWAP3 SWAP2 POP POP JUMP JUMPDEST PUSH1 0x0 PUSH1 0x20 DUP3 DUP5 SUB SLT ISZERO PUSH2 0x3A58 JUMPI PUSH2 0x3A57 PUSH2 0x25F0 JUMP JUMPDEST JUMPDEST PUSH1 0x0 PUSH2 0x3A66 DUP5 DUP3 DUP6 ADD PUSH2 0x3A2D JUMP JUMPDEST SWAP2 POP POP SWAP3 SWAP2 POP POP JUMP JUMPDEST PUSH32 0x1901000000000000000000000000000000000000000000000000000000000000 PUSH1 0x0 DUP3 ADD MSTORE POP JUMP JUMPDEST PUSH1 0x0 PUSH2 0x3AA5 PUSH1 0x2 DUP4 PUSH2 0x33BC JUMP JUMPDEST SWAP2 POP PUSH2 0x3AB0 DUP3 PUSH2 0x3A6F JUMP JUMPDEST PUSH1 0x2 DUP3 ADD SWAP1 POP SWAP2 SWAP1 POP JUMP JUMPDEST PUSH1 0x0 DUP2 SWAP1 POP SWAP2 SWAP1 POP JUMP JUMPDEST PUSH2 0x3AD6 PUSH2 0x3AD1 DUP3 PUSH2 0x34AE JUMP JUMPDEST PUSH2 0x3ABB JUMP JUMPDEST DUP3 MSTORE POP POP JUMP JUMPDEST PUSH1 0x0 PUSH2 0x3AE7 DUP3 PUSH2 0x3A98 JUMP JUMPDEST SWAP2 POP PUSH2 0x3AF3 DUP3 DUP6 PUSH2 0x3AC5 JUMP JUMPDEST PUSH1 0x20 DUP3 ADD SWAP2 POP PUSH2 0x3B03 DUP3 DUP5 PUSH2 0x3AC5 JUMP JUMPDEST PUSH1 0x20 DUP3 ADD SWAP2 POP DUP2 SWAP1 POP SWAP4 SWAP3 POP POP POP JUMP JUMPDEST PUSH32 0x4E487B7100000000000000000000000000000000000000000000000000000000 PUSH1 0x0 MSTORE PUSH1 0x21 PUSH1 0x4 MSTORE PUSH1 0x24 PUSH1 0x0 REVERT JUMPDEST PUSH32 0x45434453413A20696E76616C6964207369676E61747572650000000000000000 PUSH1 0x0 DUP3 ADD MSTORE POP JUMP JUMPDEST PUSH1 0x0 PUSH2 0x3B78 PUSH1 0x18 DUP4 PUSH2 0x28AB JUMP JUMPDEST SWAP2 POP PUSH2 0x3B83 DUP3 PUSH2 0x3B42 JUMP JUMPDEST PUSH1 0x20 DUP3 ADD SWAP1 POP SWAP2 SWAP1 POP JUMP JUMPDEST PUSH1 0x0 PUSH1 0x20 DUP3 ADD SWAP1 POP DUP2 DUP2 SUB PUSH1 0x0 DUP4 ADD MSTORE PUSH2 0x3BA7 DUP2 PUSH2 0x3B6B JUMP JUMPDEST SWAP1 POP SWAP2 SWAP1 POP JUMP JUMPDEST PUSH32 0x45434453413A20696E76616C6964207369676E6174757265206C656E67746800 PUSH1 0x0 DUP3 ADD MSTORE POP JUMP JUMPDEST PUSH1 0x0 PUSH2 0x3BE4 PUSH1 0x1F DUP4 PUSH2 0x28AB JUMP JUMPDEST SWAP2 POP PUSH2 0x3BEF DUP3 PUSH2 0x3BAE JUMP JUMPDEST PUSH1 0x20 DUP3 ADD SWAP1 POP SWAP2 SWAP1 POP JUMP JUMPDEST PUSH1 0x0 PUSH1 0x20 DUP3 ADD SWAP1 POP DUP2 DUP2 SUB PUSH1 0x0 DUP4 ADD MSTORE PUSH2 0x3C13 DUP2 PUSH2 0x3BD7 JUMP JUMPDEST SWAP1 POP SWAP2 SWAP1 POP JUMP JUMPDEST PUSH32 0x45434453413A20696E76616C6964207369676E6174757265202773272076616C PUSH1 0x0 DUP3 ADD MSTORE PUSH32 0x7565000000000000000000000000000000000000000000000000000000000000 PUSH1 0x20 DUP3 ADD MSTORE POP JUMP JUMPDEST PUSH1 0x0 PUSH2 0x3C76 PUSH1 0x22 DUP4 PUSH2 0x28AB JUMP JUMPDEST SWAP2 POP PUSH2 0x3C81 DUP3 PUSH2 0x3C1A JUMP JUMPDEST PUSH1 0x40 DUP3 ADD SWAP1 POP SWAP2 SWAP1 POP JUMP JUMPDEST PUSH1 0x0 PUSH1 0x20 DUP3 ADD SWAP1 POP DUP2 DUP2 SUB PUSH1 0x0 DUP4 ADD MSTORE PUSH2 0x3CA5 DUP2 PUSH2 0x3C69 JUMP JUMPDEST SWAP1 POP SWAP2 SWAP1 POP JUMP JUMPDEST PUSH32 0x45434453413A20696E76616C6964207369676E6174757265202776272076616C PUSH1 0x0 DUP3 ADD MSTORE PUSH32 0x7565000000000000000000000000000000000000000000000000000000000000 PUSH1 0x20 DUP3 ADD MSTORE POP JUMP JUMPDEST PUSH1 0x0 PUSH2 0x3D08 PUSH1 0x22 DUP4 PUSH2 0x28AB JUMP JUMPDEST SWAP2 POP PUSH2 0x3D13 DUP3 PUSH2 0x3CAC JUMP JUMPDEST PUSH1 0x40 DUP3 ADD SWAP1 POP SWAP2 SWAP1 POP JUMP JUMPDEST PUSH1 0x0 PUSH1 0x20 DUP3 ADD SWAP1 POP DUP2 DUP2 SUB PUSH1 0x0 DUP4 ADD MSTORE PUSH2 0x3D37 DUP2 PUSH2 0x3CFB JUMP JUMPDEST SWAP1 POP SWAP2 SWAP1 POP JUMP JUMPDEST PUSH1 0x0 PUSH1 0xC0 DUP3 ADD SWAP1 POP PUSH2 0x3D53 PUSH1 0x0 DUP4 ADD DUP10 PUSH2 0x34B8 JUMP JUMPDEST PUSH2 0x3D60 PUSH1 0x20 DUP4 ADD DUP9 PUSH2 0x34B8 JUMP JUMPDEST PUSH2 0x3D6D PUSH1 0x40 DUP4 ADD DUP8 PUSH2 0x34B8 JUMP JUMPDEST PUSH2 0x3D7A PUSH1 0x60 DUP4 ADD DUP7 PUSH2 0x2ABF JUMP JUMPDEST PUSH2 0x3D87 PUSH1 0x80 DUP4 ADD DUP6 PUSH2 0x29A9 JUMP JUMPDEST PUSH2 0x3D94 PUSH1 0xA0 DUP4 ADD DUP5 PUSH2 0x34B8 JUMP JUMPDEST SWAP8 SWAP7 POP POP POP POP POP POP POP JUMP JUMPDEST PUSH1 0x0 PUSH1 0xFF DUP3 AND SWAP1 POP SWAP2 SWAP1 POP JUMP JUMPDEST PUSH2 0x3DB5 DUP2 PUSH2 0x3D9F JUMP JUMPDEST DUP3 MSTORE POP POP JUMP JUMPDEST PUSH1 0x0 PUSH1 0x80 DUP3 ADD SWAP1 POP PUSH2 0x3DD0 PUSH1 0x0 DUP4 ADD DUP8 PUSH2 0x34B8 JUMP JUMPDEST PUSH2 0x3DDD PUSH1 0x20 DUP4 ADD DUP7 PUSH2 0x3DAC JUMP JUMPDEST PUSH2 0x3DEA PUSH1 0x40 DUP4 ADD DUP6 PUSH2 0x34B8 JUMP JUMPDEST PUSH2 0x3DF7 PUSH1 0x60 DUP4 ADD DUP5 PUSH2 0x34B8 JUMP JUMPDEST SWAP6 SWAP5 POP POP POP POP POP JUMP INVALID LOG2 PUSH5 0x6970667358 0x22 SLT KECCAK256 0xDA PUSH20 0xBB4BBE8CA180C6006519F082015C2DB28AFB0CF8 0xE7 PUSH14 0xA058F70DEE845ACE64736F6C6343 STOP ADDMOD 0xD STOP CALLER "
		},
		"gasEstimates": {
			"creation": {
				"codeDepositCost": "3185200",
				"executionCost": "infinite",
				"totalCost": "infinite"
			},
			"external": {
				"FIRST_GAME_TOKEN_ID()": "440",
				"addAdmin(address)": "27097",
				"admins(address)": "2934",
				"approve(address,uint256)": "infinite",
				"balanceOf(address)": "2943",
				"cancelMintHash(uint256,uint256,bytes)": "infinite",
				"getApproved(uint256)": "5250",
				"isApprovedForAll(address,address)": "infinite",
				"mintByAdmin(address,uint256)": "infinite",
				"mintWithHash(uint256,uint256,bytes)": "infinite",
				"name()": "infinite",
				"next_token_id()": "2474",
				"owner()": "2633",
				"ownerOf(uint256)": "2997",
				"removeAdmin(address)": "27186",
				"renounceOwnership()": "30463",
				"safeTransferFrom(address,address,uint256)": "infinite",
				"safeTransferFrom(address,address,uint256,bytes)": "infinite",
				"setApprovalForAll(address,bool)": "infinite",
				"supportsInterface(bytes4)": "797",
				"symbol()": "infinite",
				"tokenURI(uint256)": "3417",
				"transferFrom(address,address,uint256)": "infinite",
				"transferOwnership(address)": "30852"
			},
			"internal": {
				"generateMintHash(address,uint256,uint256)": "infinite"
			}
		},
		"methodIdentifiers": {
			"FIRST_GAME_TOKEN_ID()": "49025b99",
			"addAdmin(address)": "70480275",
			"admins(address)": "429b62e5",
			"approve(address,uint256)": "095ea7b3",
			"balanceOf(address)": "70a08231",
			"cancelMintHash(uint256,uint256,bytes)": "56b7e61d",
			"getApproved(uint256)": "081812fc",
			"isApprovedForAll(address,address)": "e985e9c5",
			"mintByAdmin(address,uint256)": "af3da2f4",
			"mintWithHash(uint256,uint256,bytes)": "02046c42",
			"name()": "06fdde03",
			"next_token_id()": "3e5235b3",
			"owner()": "8da5cb5b",
			"ownerOf(uint256)": "6352211e",
			"removeAdmin(address)": "1785f53c",
			"renounceOwnership()": "715018a6",
			"safeTransferFrom(address,address,uint256)": "42842e0e",
			"safeTransferFrom(address,address,uint256,bytes)": "b88d4fde",
			"setApprovalForAll(address,bool)": "a22cb465",
			"supportsInterface(bytes4)": "01ffc9a7",
			"symbol()": "95d89b41",
			"tokenURI(uint256)": "c87b56dd",
			"transferFrom(address,address,uint256)": "23b872dd",
			"transferOwnership(address)": "f2fde38b"
		}
	},
	"abi": [
		{
			"inputs": [
				{
					"internalType": "bytes32",
					"name": "salt",
					"type": "bytes32"
				}
			],
			"stateMutability": "nonpayable",
			"type": "constructor"
		},
		{
			"anonymous": false,
			"inputs": [
				{
					"indexed": true,
					"internalType": "address",
					"name": "owner",
					"type": "address"
				},
				{
					"indexed": true,
					"internalType": "address",
					"name": "approved",
					"type": "address"
				},
				{
					"indexed": true,
					"internalType": "uint256",
					"name": "tokenId",
					"type": "uint256"
				}
			],
			"name": "Approval",
			"type": "event"
		},
		{
			"anonymous": false,
			"inputs": [
				{
					"indexed": true,
					"internalType": "address",
					"name": "owner",
					"type": "address"
				},
				{
					"indexed": true,
					"internalType": "address",
					"name": "operator",
					"type": "address"
				},
				{
					"indexed": false,
					"internalType": "bool",
					"name": "approved",
					"type": "bool"
				}
			],
			"name": "ApprovalForAll",
			"type": "event"
		},
		{
			"anonymous": false,
			"inputs": [
				{
					"indexed": false,
					"internalType": "address",
					"name": "_to",
					"type": "address"
				},
				{
					"indexed": false,
					"internalType": "uint256",
					"name": "tokenId",
					"type": "uint256"
				},
				{
					"indexed": false,
					"internalType": "uint256",
					"name": "_withdrawId",
					"type": "uint256"
				}
			],
			"name": "NFTWithdrawn",
			"type": "event"
		},
		{
			"anonymous": false,
			"inputs": [
				{
					"indexed": true,
					"internalType": "address",
					"name": "previousOwner",
					"type": "address"
				},
				{
					"indexed": true,
					"internalType": "address",
					"name": "newOwner",
					"type": "address"
				}
			],
			"name": "OwnershipTransferred",
			"type": "event"
		},
		{
			"anonymous": false,
			"inputs": [
				{
					"indexed": true,
					"internalType": "address",
					"name": "from",
					"type": "address"
				},
				{
					"indexed": true,
					"internalType": "address",
					"name": "to",
					"type": "address"
				},
				{
					"indexed": true,
					"internalType": "uint256",
					"name": "tokenId",
					"type": "uint256"
				}
			],
			"name": "Transfer",
			"type": "event"
		},
		{
			"anonymous": false,
			"inputs": [
				{
					"indexed": false,
					"internalType": "uint256",
					"name": "_withdrawId",
					"type": "uint256"
				}
			],
			"name": "WithdrawRequestCancelled",
			"type": "event"
		},
		{
			"inputs": [],
			"name": "FIRST_GAME_TOKEN_ID",
			"outputs": [
				{
					"internalType": "uint256",
					"name": "",
					"type": "uint256"
				}
			],
			"stateMutability": "view",
			"type": "function"
		},
		{
			"inputs": [
				{
					"internalType": "address",
					"name": "admin",
					"type": "address"
				}
			],
			"name": "addAdmin",
			"outputs": [],
			"stateMutability": "nonpayable",
			"type": "function"
		},
		{
			"inputs": [
				{
					"internalType": "address",
					"name": "",
					"type": "address"
				}
			],
			"name": "admins",
			"outputs": [
				{
					"internalType": "bool",
					"name": "",
					"type": "bool"
				}
			],
			"stateMutability": "view",
			"type": "function"
		},
		{
			"inputs": [
				{
					"internalType": "address",
					"name": "to",
					"type": "address"
				},
				{
					"internalType": "uint256",
					"name": "tokenId",
					"type": "uint256"
				}
			],
			"name": "approve",
			"outputs": [],
			"stateMutability": "nonpayable",
			"type": "function"
		},
		{
			"inputs": [
				{
					"internalType": "address",
					"name": "owner",
					"type": "address"
				}
			],
			"name": "balanceOf",
			"outputs": [
				{
					"internalType": "uint256",
					"name": "",
					"type": "uint256"
				}
			],
			"stateMutability": "view",
			"type": "function"
		},
		{
			"inputs": [
				{
					"internalType": "uint256",
					"name": "tokenId",
					"type": "uint256"
				},
				{
					"internalType": "uint256",
					"name": "withdrawId",
					"type": "uint256"
				},
				{
					"internalType": "bytes",
					"name": "signature",
					"type": "bytes"
				}
			],
			"name": "cancelMintHash",
			"outputs": [],
			"stateMutability": "nonpayable",
			"type": "function"
		},
		{
			"inputs": [
				{
					"internalType": "uint256",
					"name": "tokenId",
					"type": "uint256"
				}
			],
			"name": "getApproved",
			"outputs": [
				{
					"internalType": "address",
					"name": "",
					"type": "address"
				}
			],
			"stateMutability": "view",
			"type": "function"
		},
		{
			"inputs": [
				{
					"internalType": "address",
					"name": "owner",
					"type": "address"
				},
				{
					"internalType": "address",
					"name": "operator",
					"type": "address"
				}
			],
			"name": "isApprovedForAll",
			"outputs": [
				{
					"internalType": "bool",
					"name": "",
					"type": "bool"
				}
			],
			"stateMutability": "view",
			"type": "function"
		},
		{
			"inputs": [
				{
					"internalType": "address",
					"name": "to",
					"type": "address"
				},
				{
					"internalType": "uint256",
					"name": "quantity",
					"type": "uint256"
				}
			],
			"name": "mintByAdmin",
			"outputs": [],
			"stateMutability": "nonpayable",
			"type": "function"
		},
		{
			"inputs": [
				{
					"internalType": "uint256",
					"name": "tokenId",
					"type": "uint256"
				},
				{
					"internalType": "uint256",
					"name": "withdrawId",
					"type": "uint256"
				},
				{
					"internalType": "bytes",
					"name": "signature",
					"type": "bytes"
				}
			],
			"name": "mintWithHash",
			"outputs": [],
			"stateMutability": "nonpayable",
			"type": "function"
		},
		{
			"inputs": [],
			"name": "name",
			"outputs": [
				{
					"internalType": "string",
					"name": "",
					"type": "string"
				}
			],
			"stateMutability": "view",
			"type": "function"
		},
		{
			"inputs": [],
			"name": "next_token_id",
			"outputs": [
				{
					"internalType": "uint256",
					"name": "",
					"type": "uint256"
				}
			],
			"stateMutability": "view",
			"type": "function"
		},
		{
			"inputs": [],
			"name": "owner",
			"outputs": [
				{
					"internalType": "address",
					"name": "",
					"type": "address"
				}
			],
			"stateMutability": "view",
			"type": "function"
		},
		{
			"inputs": [
				{
					"internalType": "uint256",
					"name": "tokenId",
					"type": "uint256"
				}
			],
			"name": "ownerOf",
			"outputs": [
				{
					"internalType": "address",
					"name": "",
					"type": "address"
				}
			],
			"stateMutability": "view",
			"type": "function"
		},
		{
			"inputs": [
				{
					"internalType": "address",
					"name": "admin",
					"type": "address"
				}
			],
			"name": "removeAdmin",
			"outputs": [],
			"stateMutability": "nonpayable",
			"type": "function"
		},
		{
			"inputs": [],
			"name": "renounceOwnership",
			"outputs": [],
			"stateMutability": "nonpayable",
			"type": "function"
		},
		{
			"inputs": [
				{
					"internalType": "address",
					"name": "from",
					"type": "address"
				},
				{
					"internalType": "address",
					"name": "to",
					"type": "address"
				},
				{
					"internalType": "uint256",
					"name": "tokenId",
					"type": "uint256"
				}
			],
			"name": "safeTransferFrom",
			"outputs": [],
			"stateMutability": "nonpayable",
			"type": "function"
		},
		{
			"inputs": [
				{
					"internalType": "address",
					"name": "from",
					"type": "address"
				},
				{
					"internalType": "address",
					"name": "to",
					"type": "address"
				},
				{
					"internalType": "uint256",
					"name": "tokenId",
					"type": "uint256"
				},
				{
					"internalType": "bytes",
					"name": "_data",
					"type": "bytes"
				}
			],
			"name": "safeTransferFrom",
			"outputs": [],
			"stateMutability": "nonpayable",
			"type": "function"
		},
		{
			"inputs": [
				{
					"internalType": "address",
					"name": "operator",
					"type": "address"
				},
				{
					"internalType": "bool",
					"name": "approved",
					"type": "bool"
				}
			],
			"name": "setApprovalForAll",
			"outputs": [],
			"stateMutability": "nonpayable",
			"type": "function"
		},
		{
			"inputs": [
				{
					"internalType": "bytes4",
					"name": "interfaceId",
					"type": "bytes4"
				}
			],
			"name": "supportsInterface",
			"outputs": [
				{
					"internalType": "bool",
					"name": "",
					"type": "bool"
				}
			],
			"stateMutability": "view",
			"type": "function"
		},
		{
			"inputs": [],
			"name": "symbol",
			"outputs": [
				{
					"internalType": "string",
					"name": "",
					"type": "string"
				}
			],
			"stateMutability": "view",
			"type": "function"
		},
		{
			"inputs": [
				{
					"internalType": "uint256",
					"name": "tokenId",
					"type": "uint256"
				}
			],
			"name": "tokenURI",
			"outputs": [
				{
					"internalType": "string",
					"name": "",
					"type": "string"
				}
			],
			"stateMutability": "view",
			"type": "function"
		},
		{
			"inputs": [
				{
					"internalType": "address",
					"name": "from",
					"type": "address"
				},
				{
					"internalType": "address",
					"name": "to",
					"type": "address"
				},
				{
					"internalType": "uint256",
					"name": "tokenId",
					"type": "uint256"
				}
			],
			"name": "transferFrom",
			"outputs": [],
			"stateMutability": "nonpayable",
			"type": "function"
		},
		{
			"inputs": [
				{
					"internalType": "address",
					"name": "newOwner",
					"type": "address"
				}
			],
			"name": "transferOwnership",
			"outputs": [],
			"stateMutability": "nonpayable",
			"type": "function"
		}
	]
}